:020000040800F2
:10000000380800206102000821330008053200088A
:1000100000000000000000000000000000000000E0
:10002000000000000000000000000000793500081A
:100030000000000000000000233300087B350008AA
:100040007302000800000000730200087302000839
:1000500073020008730200087302000873020008AC
:100060000000000073020008730200087302000819
:100070007302000873020008730200080000000009
:100080007302000800000000000000007302000876
:1000900000000000730200087302000873020008E9
:1000A0007302000873020008730200085940000838
:1000B00073020008000000000000000000000000C3
:1000C00000F002F800F0BDF80CA030C80838241881
:1000D0002D18A246671EAB4654465D46AC4201D180
:1000E00000F0AFF87E460F3E0FCCB64601263342F5
:1000F00000D0FB1AA246AB46334318472C470000FA
:100100004C470000103A02D378C878C1FAD8520799
:1001100001D330C830C101D504680C6070470000BD
:100120000023002400250026103A01D378C1FBD813
:10013000520700D330C100D50B60704710B56E294F
:1001400002D100F04FFA10BD702902D100F091FBEE
:1001500010BD662902D104F095FA10BD652902D1BF
:1001600004F090FA10BD672902D104F08BFA10BD9B
:10017000612902D104F08EFA10BD03681B0A01D375
:1001800080231943692902D100F0F6F910BD6429D2
:1001900002D100F0F1F910BD752902D100F0ECF99F
:1001A00010BD6F2902D100F00FFB10BD782902D1DC
:1001B00000F04CFB10BDE92902D100F0ABFA10BDF4
:1001C000E42902D100F0A6FA10BDF52902D100F011
:1001D000A1FA10BDEF2902D100F002FB10BDF829F1
:1001E00002D100F041FB10BD0368DB0901D380237D
:1001F0001943632902D101F026F810BD732902D1F9
:1002000001F029F810BDE32902D101F033F810BD47
:10021000F32902D101F036F810BD002010BD1FB542
:1002200001F090F804000020002104F015FA401CB1
:1002300060600020002104F0F9F9E0601FBD10B5F6
:1002400010BD01F057F81146FFF7E9FF03F063FF17
:1002500001F0ECFB03B4FFF7F2FF03BC01F036FC46
:100260000748804707480047FEE7FEE7FEE7FEE74E
:10027000FEE7FEE704480549054A064B70470000C3
:10028000EB350008C10000083802002038080020C3
:1002900038040020380400207CB51D4616460C00AA
:1002A000009001D00019401E084B7B442A46694645
:1002B0000190304600F0AFF9002C054603D06946A6
:1002C000002000F0BBF928467CBD00009903000027
:1002D00030B5441C03E00178401C00290DD0810793
:1002E000F9D10B4BDD0104C8D11A91432940FAD052
:1002F000001B0A0603D0C01E30BD001B30BD0A041F
:1003000001D0801E30BD0902FCD0401E30BD00006F
:100310000101010101E004C0091F0429FBD28B0780
:1003200001D50280801CC90700D0027070470029E7
:100330000BD0C30702D00270401C491E022904D30F
:10034000830702D50280801C891EE3E70022EEE7C6
:100350000022DFE7002203098B422CD3030A8B42E1
:1003600011D300239C464EE003460B433CD40022AD
:1003700043088B4231D303098B421CD3030A8B42BF
:1003800001D394463FE0C3098B4201D3CB01C01A8D
:10039000524183098B4201D38B01C01A5241430958
:1003A0008B4201D34B01C01A524103098B4201D346
:1003B0000B01C01A5241C3088B4201D3CB00C01AB3
:1003C000524183088B4201D38B00C01A524143082B
:1003D0008B4201D34B00C01A5241411A00D2014650
:1003E0005241104670475DE0CA0F00D049420310E9
:1003F00000D34042534000229C4603098B422DD338
:10040000030A8B4212D3FC22890112BA030A8B42DF
:100410000CD3890192118B4208D3890192118B422E
:1004200004D389013AD0921100E08909C3098B42B3
:1004300001D3CB01C01A524183098B4201D38B01F6
:10044000C01A524143098B4201D34B01C01A524199
:1004500003098B4201D30B01C01A5241C3088B42DE
:1004600001D3CB00C01A524183088B4201D38B00C9
:10047000C01A5241D9D243088B4201D34B00C01A53
:100480005241411A00D20146634652415B10104668
:1004900001D34042002B00D54942704763465B10B0
:1004A00000D3404201B50020C046C04602BD70479F
:1004B0007047704770B5044685690068C10601D56C
:1004C000302600E02026C00707D070BD62683046A5
:1004D000A1689047206A401C20626D1EF6D570BD51
:1004E00070B5044685690078C00707D170BD6268A1
:1004F000A16820209047206A401C20626D1EF6D51E
:1005000070BD09684A0501D540B27047C905FCD5E0
:1005100000B2704709684A0501D5C0B27047C905E5
:10052000FCD580B2704770B50C460546012A05D04F
:100530002878800600D5EA69002302E0012305E05F
:100540005B1C934202D2E05C0028F9D1A869E6184E
:10055000C01AA861286AC01828622846FFF7AAFFB7
:1005600004E06A682078A968641C9047B442F8D314
:100570002846FFF7B5FF70BDF7B50025752910684F
:10058000009914A611D0FFF7BCFF002802DA404200
:1005900011A608E0009909688A0701D50FA602E0B4
:1005A000490704D50EA6012501E0FFF7B3FF009F20
:1005B0000024243704E000F089FE30313955641CF2
:1005C0000028F8D12B4632462146009800F05FFA09
:1005D000FEBD0000000000002D0000002B00000008
:1005E0002000000011680268006A530501D50870F8
:1005F00009E0D30501D5088005E0130602D5C2172E
:1006000005C100E0086001207047000001694A1C34
:1006100002610878704700B58FB002910021059102
:10062000054901937944039111460490684600F00E
:100630002DF90FB000BD0000E5FFFFFF0A68107044
:10064000521C0A6070470CC908399A4202D2531CE6
:100650000B60107070470000F7B50446154686B071
:100660002B487844002703C83E460090019111E0D2
:1006700007986A467100415A02A800F007FE411C23
:1006800007D02178890603D5E269391891420ED83E
:100690003F18761C2078800602D5E069B84206DD56
:1006A000AE42E5DB07987100405A0028E0D1A0690E
:1006B000C01BA0612046FFF7FDFE154878445A385C
:1006C00003C800900020019116E041006A46079897
:1006D000415A02A800F0DAFD0590401C0AD000251E
:1006E00005E0626802A8A168405D90476D1C05980E
:1006F0008542F6D30498401CB0420490E5DB206AA2
:10070000C01920622046FFF7EBFE09B0F0BD0000E3
:10071000C6400000F7B5D21D0025D20815A6D200AC
:10072000F52905CA11D0002A05DA0021404291417D
:1007300011A60A4608E0009909688B0701D50FA6A3
:1007400002E0490701D50EA601251146009F0024AD
:10075000243704E000F05EF930323A55641C02465A
:100760000A43F7D12B4632462146009800F08FF914
:10077000FEBD0000000000002D0000002B00000066
:100780002000000070B504460021243408E055071D
:10079000D2086D0F303565545D072A43DB08491CCC
:1007A00015461D43F3D10468002310A2250708D580
:1007B000A40601D4002904D0C46901230CA2641E3C
:1007C000C46100F064F970BD10B50446214610689C
:1007D000FFF7A0FE002302462046FFF7D3FF10BD1F
:1007E000D21DD108C9000CC9CCE7000000000000F0
:1007F00030000000F8B50F460188090502D5224CEB
:100800007C4402E0204C7C440E3405460021243513
:1008100008E016071209360FA65D6E541E07324314
:100820001B09491C16461E43F3D1224604780023B7
:10083000240705D5702F06D0002901D002231132DC
:1008400000F025F9F8BD01231032F9E770B5044630
:100850000D4621461068FFF75DFE0023024629463B
:100860002046FFF7C7FF70BDD21DD308DB000CCBBD
:10087000C0E730B4036820241268234303600823D0
:10088000C36130BC0023B5E7303F0000F3B5044638
:10089000002081B020622046E1688847002872D09D
:1008A000252802D06268A168ABE0594F00267F443A
:1008B0002046E16888472028054608DB312D06D20E
:1008C000781920380078002801D00643F0E7B007F7
:1008D00001D5042086430020E0610746A0612A2D4F
:1008E0000AD0284603F010FC002827D0B8000019D1
:1008F000303D0090856119E00298BA00121902C8D3
:10090000916102902046E1688847012F054617D182
:10091000E06900281FDA202086431CE000980A21A5
:100920008069484300994019303888612046E16861
:100930008847054603F0E8FB0028EFD1012F0AD0D5
:100940002E2D08D12046E168884705462020064321
:100950007F1C022FC3DBA069002803DA4042A0619C
:1009600001200643F00701D0102086436C2D0BD0E8
:10097000682D09D04C2D3CD06A2D38D0742D38D03C
:100980007A2D36D016E040E0E1682F4620468847B1
:10099000B842054609D16C2F29D001208002E168B8
:1009A000064320468847054604E06C2F1DD0FF20F3
:1009B00001300643002D28D028464138192803D895
:1009C0000120C00206432035204626602946029AAF
:1009D0001646FFF7B3FB002810D001280BD0F61DF8
:1009E000F008C0000830029055E74020E1E7802081
:1009F000D5E70020D3E7361D02964CE7626828460B
:100A0000A1689047206A401C44E7206AFEBD0000B0
:100A1000AA3E00000B4670B50246890780080843CD
:100A200019469D08141AA941250908070543080914
:100A30002C194841250A01060D43010A2C19414190
:100A4000200C0D0428430D0C00194D4100214019C4
:100A50004D41C00869070843E908840F8D0025430C
:100A6000840024184D4124196D41121BAB4107E04D
:100A70000925ED432C11521963410024401C6141AA
:100A80001C460A250026551BB441F1D270BDFFB5A6
:100A900004460D4681B0243000902168880604D5B4
:100AA0001022E0699143216000E00120A84201DDAD
:100AB000471B00E000270498A1697A191018081A4A
:100AC000A0612078C00602D42046FFF7F3FC002680
:100AD00008E003986268A168805D9047206A401C26
:100AE000761C206204988642F3DB2078C0060AD583
:100AF0002046FFF7DFFC06E06268A16830209047DF
:100B0000206A401C206238467F1E0028F4DC07E083
:100B100000986268A168405D9047206A401C20628E
:100B200028466D1E0028F3DC2046FFF7D9FC20780C
:100B3000000602D5022005B0F0BD0120FBE7000051
:100B40007047FFB50C461E468FB003CA0890099146
:100B50004F007D0D00D16D1E002108460020C046CB
:100B60000321099A89050840002A03DA82008018C7
:100B700040080840800D01280A9002DD0020C04393
:100B80000A90089807430DD0F048F14928184843C7
:100B90000714189800281DD07542291E1DDD0A98DB
:100BA00042421BE01898012802D00020302104E0C6
:100BB0000020F24305E02154401CB042FBDB3046EC
:100BC0000022189B002121540F998B600A60486015
:100BD00013B0F0BDBD1B6D1CDFE70A9A002900DAD7
:100BE00069420BA800F0F6FB0BAB07CB03AB07C3C6
:100BF0000899099800F05AFC6B4607C30146D5488E
:100C00000918002D00910BDDD24903980A9A494238
:100C10004018002303A90390684600F0B7FE08E0DF
:100C200003990A9A0023081803A90390684600F064
:100C300057FE6B4607C30004000C03D00020C043DE
:100C4000410800E01046189A002A03D000220092C2
:100C500015461EE0751E05D4FFF7DCFE30326255E6
:100C60006D1EF9D501220843079602D000227F1C91
:100C700004E02078302801D100227F1E002A069748
:100C800087D01EE0112D07DAFFF7C4FE303262551F
:100C90006D1C02460A43F5D1084303D00098002892
:100CA00019D00EE00021681E05E0235C625C6354ED
:100CB0002254401E491C8142F7DBA81B401E0795A9
:100CC0000690079A18990020A0540F98079B069A3F
:100CD00081600CC07CE711260020189059E7D21DD6
:100CE000F0B50D460446D10893B0C90003C90C9075
:100CF0000D9103F0D1F902460D98C00F01D02D20BF
:100D000007E02068810701D52B2002E04007C00FD3
:100D10004001032A0F9001D0072A05DB034629462C
:100D2000204600F013FB0EE12078800601D5E7692C
:100D300000E006272846652D04D0662814D0672DCC
:100D400069D12DE00020112F009001DB112300E07C
:100D50007B1C0CAA03A910A8FFF7F3FE119900262B
:100D600010987D1C0E9142E001203B460CAAC00762
:100D70000B900120009003A910A8FFF7E2FE119D3F
:100D800012981099002600280E9501D1781C0D1894
:100D9000781B02D446427D1C761EE81B00903AE088
:100DA000012F00DA01270020112F009001DD11230F
:100DB00000E03B460CAA03A910A8FFF7C2FE119958
:100DC0003D46109800260E91217809070BD40E9904
:100DD000A94200DA0D4603A9012D04DD4A19203A83
:100DE000D27F302A06D0B84201DA011D04DA01218F
:100DF00000910FE06D1EEFE7002802DC86192D1A26
:100E000003E0411CA94200DD0D46801B401C009000
:100E10000120C0070B902078000705D40098A84255
:100E200002DB0020C043009069460020C8720B9886
:100E3000012102AF0337C907884225D00220109054
:100E40002B2011900B9800280BDA40420B902D209C
:100E5000119006E00B9800F039FA30317F1E0B90AC
:100E600039701099481E00291090F3DC0B98002867
:100E7000F0D111987F1E38702088000501D54520DB
:100E800000E065207F1E387001A8C01BC01D0B90BC
:100E90000F98002800D0012041190098C0170918A8
:100EA0000B980818A169081A401EA0612078C00696
:100EB00002D42046FFF7FEFA0F98002805D062689A
:100EC000A1689047206A401C20622078C00625D582
:100ED0002046FFF7EFFA21E0002E07DB0E98B04224
:100EE00004DD03A86268805DA16802E06268A16811
:100EF00030209047206A761C401C20620098401EDB
:100F0000002800900AD100F01DFAC06862680168EC
:100F1000405CA1689047206A401C206228466D1EF4
:100F20000028D9DC07E062683878A1687F1C904708
:100F3000206A401C20620B99481E00290B90F2DCAD
:100F40002046FFF7CDFA032042E6000001FCFFFF38
:100F5000104D0000E1DFFFFFD21DF0B504460D4645
:100F6000D0088DB0C000466807683146384603F0A7
:100F700093F80246F00F01D02D2307E02068810787
:100F800001D52B2302E04007C00F43016846002B28
:100F9000037001D0012000E00020032A0A9001D054
:100FA000072A04DB2946204600F0D0F92DE12078FD
:100FB000800601D40D2500E0E5697000400D0D2D7F
:100FC00001904BDA300D00210B9008460020C046FE
:100FD000032189050840002E05DA82008018C20F1F
:100FE0001018401008408015012801DD0020C04382
:100FF000A9000023182906D39C460A460123183A63
:101000001B07D34003E001221205CA4094460C316D
:10101000202902D33A46203900E032468A4000288F
:1010200002DD002A06D119E0002817D10121C907E5
:101030008A4213D3194663467F185E41002806D1C1
:101040000120C007824202D1084687439E430B9885
:10105000310D814202D00198401C0190208800058A
:1010600002D57149794402E06F49794419396B46D8
:101070000A9830221A540A980A7C401C1A54401CC0
:101080000A900198002801DC302000E0312018721D
:10109000019A0120002A02D0644BD21804E07200A9
:1010A0003A4302D0614A521C0192002D02DC2278A0
:1010B000120703D56A462E2050720220002286466F
:1010C00094460CE032033601120F6D1E8B5C02AAAF
:1010D00013546246521C401C9446052A01DA002D26
:1010E000F0DC002202AE08E03B0F3F01CB5C521C5B
:1010F0006D1E3354401C082A01DA002DF4DC2368ED
:101100009A0601D511E0401E704504DD3218203AE0
:10111000D27F302AF7D0002807DD3218203AD27F5C
:101120002E2A02D11A0700D4401E002D03DD3E22D4
:101130003254401C6D1E497C31540199401C0029D9
:1011400006DA2D21471C315401984042019003E0FA
:101150002B21471C315401987D21C900884206DBB0
:10116000FFF702F93030F0557F1C019101E064284F
:1011700008DB01986421FFF7F7F83030F0557F1C49
:10118000019101E00A2806DB01980A21FFF7ECF83B
:101190003030F0557F1C01980A21FFF7E5F8303117
:1011A000F1550A98A1697F1C7A191018081AA061D4
:1011B0002078C00602D42046FFF77CF9216A6E46EB
:1011C0000A980818206204E062683078A168761CEA
:1011D00090470A98401E0A90401CF5D12078C0061E
:1011E00002D52046FFF766F902AE09E03078761C9A
:1011F0003E280DD06268A1689047206A401C20629A
:101200007F1EF3D22046FFF76BF90DB00320F0BD2F
:10121000206A4019206203E06268A168302090478C
:101220006D1EEDD3F8E700001837000001FCFFFF4A
:1012300010B54369002B02D0C046C04601E0FFF75D
:1012400072F9012010BD1278014624310A70002283
:101250004A700122ECE711680022D243E8E710B59A
:101260004369002B02D0C046C04601E0FFF7F4F905
:10127000012010BD12880146243182840022C284DC
:101280000122ECE711680022D243E8E770B5164668
:101290000C46054600F04EF80368FF200230C05CA3
:1012A000012807D0FF2C0ED8185D00280BD0012094
:1012B0002C7070BDFF333246214608331868C318BE
:1012C0002846984770BD0020C04370BD0146800885
:1012D000081A02091018020A1018020C1018C00887
:1012E000820012185200891A01E0401C0A390A29AA
:1012F000FBD27047754600F0A1FBAE46050069467B
:101300005346C008C000854618B020B5FEF7B2FFAE
:1013100060BC00274908B6460026C0C5C0C5C0C588
:10132000C0C5C0C5C0C5C0C5C0C5403D49008D468B
:101330007047000010B500F005F8001D10BD00BF9B
:101340001933000000487047F8010020F8B51F4627
:10135000044601230068DB02032601461840072AE1
:1013600005DB002801D017A506E017A504E000283A
:1013700001D016A500E016A5102081432160A069C8
:10138000C01E002FA06101D0401EA0612046FFF7C3
:1013900091F8002F09D038466268A1689047206A0A
:1013A000401C2062C01C206206E0206AFAE76268E6
:1013B0002878A1686D1C9047761EF8D22046FFF76A
:1013C0008FF8F8BD4E414E006E616E00494E4600EA
:1013D000696E6600F7B516468AB0334878446C46A5
:1013E00003467C33C06F5A689B680DC42E4878440E
:1013F000763003AC0DC80DC43720C0010818372162
:101400001B30FEF7B1FF05460C46803D1B3C02D564
:101410006442012000E000200027099010E0E0076E
:101420000CD00C2020497843794432464C3941187D
:101430006846012300F054FA6B4607C364107F1C12
:10144000002CECD1184F7F442E3F16E0E80712D055
:101450002001C0190EC80691089307920068F04257
:1014600001D1981908903246012306A903A800F07B
:1014700037FA03AB07C36D10641C002DE6D1099841
:10148000002806D032466946012303A800F07EFA00
:1014900005E001233246694603A800F021FA0A9BC1
:1014A00007C30DB0F0BD0000B43300000346400098
:1014B0000A4610B5400D0BD00121C9070F24A40224
:1014C00000191C0364082143540D2143D20207E094
:1014D00000210120F2E7D40F490021435200401EB1
:1014E0000029F8DADB0FDB07184310BDFFB50D4606
:1014F000144685B04868516802F0B6FD009101902D
:10150000A868A16802F0B0FD02910390A868616824
:1015100002F0AAFD029A12188242029201D2012020
:1015200000E00020019A0B18D2180028019202D086
:101530008A4202D903E08A4201D2012000E0002061
:101540000099081800906868A16802F08DFD029A61
:1015500012188242029201D2012000E00020019A7A
:101560000B18D2180028019202D08A4202D903E057
:101570008A4201D2012000E0002000990818009062
:101580002868216840004900400849084018FA4985
:10159000471814E001994000C90F084300900198D2
:1015A00002994000C90F0843019002980399400036
:1015B000C90F08430290039840007F1E03900098D3
:1015C0000028E7DA0898002801D0EC4E00E0002659
:1015D000B74201DA012000E00020002804902AD060
:1015E000F71BF806C00E15D0029B2021091A039A9A
:1015F0008B401A430392029A019BC2408B401A43CC
:101600000292019A009BC2408B4000991A430192BA
:10161000C14000917B110DD06F460320C11A03D544
:1016200000218200B95003E08A008100BA587A5044
:10163000401EF3D5374603980299002800D00120B8
:10164000014308980291002808460CD0002800D0D9
:1016500001200199019A490508430121D20AC902D2
:10166000D202019200E001210E9B0122D207012B40
:1016700002D0002B03D013E0002807D120E09042D5
:1016800004D890420CD1019B0B4209D0019B591800
:10169000019105D10099491C009101D17F1C009254
:1016A00000280DD0102108460020C04604980028CC
:1016B00006D00F98002803D0082108460020C04615
:1016C00028682168019B009A4840C10F0598C90706
:1016D00039430EC009B0F0BDFFB587B0099A08982C
:1016E0000899536892684068896896460022039377
:1016F00017469446089A12685300099A5B081268C4
:10170000520052089A1A9E4BD4180A9A002A01D005
:10171000352200E040220692002201231546049261
:10172000DB07059324E0002D05D175460346039E93
:101730004D1BB34109D375466646039B491B049D67
:101740009841059B7519AC465F4163463B4308D001
:10175000059B049EDD0776082E435B0804960593DF
:1017600001E0521E641EC50FED0749184041521C8E
:10177000069B9A42D7DB002D04D17546039A6B1A5B
:10178000824101D203200CE0039A0B466B40424099
:10179000134303D0014303D0012002E0022000E004
:1017A0000020614601910021009702910A990029C9
:1017B00005D0614640020143704B019102E0800771
:1017C000002302909C4201DA012000E00020070083
:1017D0003AD01A1BD006C00E15D0029D2021019CC4
:1017E000091AC5408C402543029C8C4000D001243E
:1017F0002543019C0295009DC4408D4000992C43D7
:101800000194C140009154111DD06D460221002267
:1018100002290CD10320001B07E0002804DB86000E
:10182000AE59002E00D00122401C0328F5DB081B16
:1018300002D588002A5004E08000285810438A000E
:10184000A850491EE3D51C460A98002802980CD0DF
:10185000002800D001200199019A4905084301217F
:10186000D20AC902D202019200E00121109B01229A
:10187000D207012B02D0002B03D013E0002807D1A0
:101880001FE0904204D890420CD1019B0B4209D03A
:10189000019B5918019105D10099491C009101D172
:1018A000641C009200280CD0102108460020C0467D
:1018B000002F06D01198002803D0082108460020E8
:1018C000C04608980999019A009B00680968484039
:1018D000C10F0798C907214382600AC00BB0F0BD51
:1018E00000B585B0019300920A460146002302A884
:1018F000FFF7FCFD02A807C805B000BDFFB50A460A
:101900001F4685B00799019301230091014602A863
:10191000FFF7ECFD02990398049ECA0F4900D20715
:1019200000920F22490892028C1A0021002800DB45
:101930000C46450013486D08844214D3079A002AC8
:1019400004DA441E0026104DF64302E004460D461C
:101950000E46102108460020C046002F03D0042167
:1019600008460020C0462005E90A084300990843BC
:101970006905F20A1143ADE602C0FFFF013C000019
:10198000FF3F0000FF070000FFFFFF7F00B585B0AD
:10199000019300920A460146002302A8FFF79CFE2D
:1019A00002A807C8A8E7FFB50A461F4685B00799F1
:1019B000019301230091014602A8FFF78DFE0299D1
:1019C0000398049ECA0F4900D20700920F224908CB
:1019D00092028C1A0021002800DB0C4645001148B9
:1019E0006D08844214D3079A002A04DA441E0026A4
:1019F0000D4DF64302E004460D460E461021084602
:101A00000020C046002F03D0042108460020C04615
:101A10002005E90A0843009908436905F20A1143C1
:101A200058E60000FF070000FFFFFF7F10B50446E7
:101A3000C046C0462046FEF70DFC10BD004870476A
:101A4000D8010020024670B50A4392072AD11E4DE4
:101A5000EE0104C808C9541B9443344017D0D0B2D7
:101A6000D9B2401A2106014310D190B299B2401A5E
:101A7000210401430AD110021902000A090A401A7E
:101A80002102014302D1100E190E401A70BD9A4274
:101A9000DFD010BA19BA884201D9012070BD0020E8
:101AA000C04370BD02780B78401C491C002A09D045
:101AB0009A4207D102780B78401C491C002A01D0B9
:101AC0009A42EFD0D01A70BD0101010101491820DE
:101AD000ABBEFEE726000200704772B6FEE70000CC
:101AE000F0B5002808D0014620314A79022A05D0F5
:101AF0000422C263002008710120F0BD026813684F
:101B00000E24A3431360426C1468FF2301339C43EB
:101B10001460026814686408640014600C4A556814
:101B2000066C1C24264001242746B7403D435560DF
:101B3000826CC56C5560026D002A05D015689D4306
:101B40001560826D406D42604C7100200871F0BDDF
:101B500000000240F8B500240246203251790229E3
:101B600003D00421C16301242DE001680B680E2518
:101B7000AB430B6001680B685B085B000B60416C5A
:101B80000B68FF250135AB430B6010494D68066CAF
:101B90001C231E4001231F46B7403D434D60816C0E
:101BA000C56C4D60016D002906D00E681D02AE4364
:101BB0000E60416D856D4D60537100211171816B17
:101BC000002900D088472046F8BD000000000240F0
:101BD00070B5044600F0C8F80546601C02D0044801
:101BE0000078241800F0C0F8401BA042FAD370BD62
:101BF00000000020F0B5002303249AE02A460125C6
:101C00009D402A407ED00E79B607B60F012E01D036
:101C1000022E16D186682746B4465E00B646B74007
:101C20006646BE43B446CF687646B74066463743FD
:101C300087604668AE430D79ED06ED0F9D40354354
:101C400045600D79ED43AD0708D0C5685F002646B5
:101C5000BE40B5438E68BE402E43C6600D79AD07C9
:101C6000AD0F022D0ED1DD08AD002D18AC462D6A4A
:101C70005E07F60E0F27B740BD430F69B7402F43ED
:101C800065462F6205685F002646BE40B5430E7963
:101C9000B607B60FBE402E4306604D68AD03AD0FCC
:101CA00046D09E08264DB6007519AC462D6E9E078F
:101CB000F60E0F27B740BD4305273F07B84201D1B5
:101CC00000270FE01F4FB84201D101270AE01E4F45
:101CD000B84201D1022705E01C4FB84201D10327C9
:101CE00000E00527B7402F43154D664637662D683F
:101CF0004E689543F60200D51543114F3D607D684F
:101D0000954300E014E04E68B60200D515437D60AF
:101D10000B4D80356E684F689643BF0300D5164360
:101D20006E602E684F689643FF0300D516432E6001
:101D30005B1C0A681546DA4000D05FE7F0BD000082
:101D4000001802400004005000080050000C005031
:101D50000069084000D001207047002A01D081614D
:101D6000704781627047000001488068704700003A
:101D7000000000200248816802788918816070475D
:101D80000000002010B508480024016882151143A6
:101D90000160032000F00AF8002801D0012401E0CE
:101DA00000F028F8204610BD0020024070B50F4E0C
:101DB000002431780546002915D07D20C000FEF7AB
:101DC000C9FA01460A480068FEF7C4FA00F0FEFEB0
:101DD000002808D1042D06D200222946401E00F01A
:101DE0002BF8756000E00124204670BD0000002043
:101DF0000C00002008B50948016801221143016068
:101E000000681040009005484038C26B01040A4346
:101E1000C263C06B0840009008BD00004010024043
:101E2000002805DBC106C90E012088400149086071
:101E30007047000000E100E010B502F043F910BD6A
:101E400010B50F4C216803225202914301432160D7
:101E5000C11FFF39FA390ED10A48062100684843EC
:101E60000949FEF777FA401C02E0002805D0401E21
:101E700061694905F9D4002010BD032010BD0000A0
:101E8000007000400C00002040420F00F8B50446EE
:101E9000006800264D4D800358D54C480027403837
:101EA000C06BC00009D449484038C26B01040A43E2
:101EB000C263C06B08400127009045480168821545
:101EC00011430160FFF750FF009005E0FFF74CFF62
:101ED0000099401A022825D83D480068C005F5D56C
:101EE000E8690321090208400FD0616981420CD0E2
:101EF000E86903210902EA698843012109040A43C8
:101F0000EA61EA698A43EA61E861C0070FD0FFF736
:101F10002BFF009008E0FFF727FF0099411A2D489A
:101F2000814201D9032609E0E8698007F3D5E86911
:101F300003210902884361690843E861002F05D045
:101F400022484038C26B01048A43C2632078C0072C
:101F500005D068696168800880000843686120785E
:101F6000800606D56869032109038843A1680843F0
:101F700068612088400411D5686921698000800863
:101F800008436861012120698907884206D10F480A
:101F90004038C168012212041143C1602088000545
:101FA00012D56869032189038843E16808436861A1
:101FB0000121E0688903884206D104484038C1689D
:101FC000012212041143C1603046F8BD40100240A6
:101FD0000070004088130000F8B50F46060043D09B
:101FE0004D4D28684007400FB84213D22868C008FA
:101FF000C00038432860FFF7B7FE044605E0FFF74E
:10200000B3FE011B4548814261D828684007400F54
:10201000B842F4D13068424C81070DD5400704D551
:10202000A068072109030843A060A0680F210902E6
:102030008843B1680843A0603078C00732D0706828
:1020400001280AD002280BD000280FD03449403193
:1020500003280ED0C969890704E02168890301E0DB
:1020600021688901002906DB0120F8BD21684905A6
:10207000F8E7096AEFE7A168C908C9000143A16050
:10208000FFF772FE009006E0FFF76EFE0099411A1E
:10209000224881421BD8A068382108407168C900D5
:1020A0008842F1D128684007400FB84217D91A4832
:1020B0000168C908C90039430160FFF755FE0546AC
:1020C00007E0FFF751FE411B1448814201D903206C
:1020D000F8BD114800684007400FB842F1D1307890
:1020E000400706D5A068072109038843F168084323
:1020F000A06000F031F8A1683C2289091140094A2A
:10210000515CC906C90EC840074908600748006805
:10211000FFF74CFEF8BD00000020024088130000CD
:1021200000100240CC4600080C00002004000020F3
:102130000648074900688968064A4904490F89002A
:10214000515CC906C90EC840704700000C00002051
:10215000001002400C47000810B5204CA068204A2F
:102160008006400F16D0A0688006410F501001294C
:102170000FD0A1688906490F022912D0A0688006F5
:10218000400F042823D0A0688006400F032821D0E8
:10219000002010BD206801218004400F81401046BE
:1021A00012E0E1688B07E1689B0F4906490F491C63
:1021B000032B00D01046FEF7CDF8E1684904490E24
:1021C0004843E168490F491CFEF7C4F810BD0120DF
:1021D000C00310BD7D20000210BD000000100240B1
:1021E0000024F400F8B504007ED020783827C0071A
:1021F000E94D002846D0A868E96838408907890F6A
:10220000102802D008280BD001E0032908D00120B3
:102210006268000482420AD129680143296015E0FE
:10222000286880032ED560680028DDD02AE00523C9
:1022300001211B0489049A422A6802D10A432A60B8
:10224000EAE782432A60286888432860606800289B
:102250000CD0FFF789FD064604E0FFF785FD801BE3
:10226000642873D828688003F7D50BE0FFF77CFD5E
:10227000064604E0FFF778FD801B6428F1D8286843
:102280008003F7D42078800769D5A868E9683840CA
:102290008A070721920FC902102802D0002813D004
:1022A00001E0022A10D0E068002846D02868884360
:1022B0002169084328602868FF210131084328600C
:1022C000FFF752FD06462CE02A68520502D5E26867
:1022D000002A89D06A687F231B029A4363691B0224
:1022E0001A436A60002800E08DE00ED12868884318
:1022F000216908432860286801218004400F81403B
:10230000A648FEF727F8A6490860A6480068FFF728
:102310004DFD002877D122E0FFF726FD801B022823
:102320009FD828684005F7D568687F21090288434F
:10233000616909020843686011E02968FF200130E3
:1023400081432960FFF710FD064605E098E0FFF79E
:102350000BFD801B022884D828684005F7D420781C
:10236000914E00072ED5A8688006400F03280AD09A
:10237000A0690028306A16D0012108433062FFF7B7
:10238000F3FC07460BE0306A80071BD5A0690028E4
:102390009FD017E0FFF7E8FCC01B022870D8306A16
:1023A0008007F7D50EE0400840003062FFF7DCFC04
:1023B000074604E0FFF7D8FCC01B022860D8306A4B
:1023C0008007F7D4207840076CD5A86800278006DE
:1023D000400F042818D0E86BC00008D4E96B012036
:1023E00000070143E963E96B0140012700916F4851
:1023F0000168C90519D40168821511430160FFF70E
:10240000B3FC00900DE083E0F06980074AD5A06836
:1024100000287DD046E0FFF7A7FC0099401A02286B
:102420002ED862480068C005F5D5A168012910D0F2
:1024300004200529F16911D049084900F161F169C9
:102440008143F161A068002816D0FFF78DFC009051
:102450000EE0F06901210843F061F3E70143F16107
:10246000F7E7FFF781FC0099411A5148814265D88E
:10247000F0698007F5D50EE0FFF776FC009007E0E5
:102480005CE0FFF771FC0099411A4948814255D838
:10249000F0698007F5D4002F04D0E96B0120000714
:1024A0008143E963E069002873D0A9688906490F70
:1024B00002294DD0012636060228286805D0B043EF
:1024C0002860FFF751FC04463AE0B0432860FFF76C
:1024D0004BFC074604E0FFF747FCC01B02282DD841
:1024E00028688001F7D4616A206AA26A0843E16A19
:1024F000120211430843216B0843E9682D4A114039
:102500000843E860286830432860E868012100E05B
:102510003DE009070843E860FFF726FC044604E0B5
:10252000FFF722FC001B022808D828688001F7D595
:102530002FE0FFF719FC001B022801D90320F8BD8A
:1025400028688001F5D4E8681B490840E86020E06D
:102550000128F4D0E868226A8107890F914216D1D8
:102560007021626A0140914211D17F21A26A090261
:102570000140120291420AD11F214904E26A01403E
:10258000914204D1400F216B4007884201D00120C5
:10259000F8BD0020F8BD0000001002400024F40047
:1025A0000C00002004000020401002400070004099
:1025B000881300008C80C11FFCFFFEEFF8B50400FB
:1025C0000CD0606A002500280AD025616561264686
:1025D0004036A562707F002808D00BE00120F8BDCE
:1025E0006168C81FFD38F2D0E561F0E73577204615
:1025F00000F05CF80222727720680168402399435A
:1026000001600723E1681B02994201D9002001E023
:10261000012000030F273F02B94202D0994200D0A7
:10262000A562FF236168053319402127A368BF0213
:102630003B40194323691340227D1943D207D20F2F
:1026400011430123A2695B021A401143E269382356
:102650001A401143226A80231A401143A26A9B0147
:102660001A40114322681160A1690422090C11402B
:10267000626A10231A401143626B08231A40114307
:102680000F23E2681B021A4011430122120310407B
:102690000143206841602068C16952109143C161C3
:1026A0002566012070770020F8BD000010B586B0C7
:1026B000044614216846FDF74BFE12492068884203
:1026C0001DD11148026881140A4302600068084065
:1026D00005900D484038416B012211434163406B26
:1026E000694610400590E0200090022001900020F3
:1026F00002900390049005200007FFF77BFA06B0D4
:1027000010BD00000030014040100240FFB500261F
:10271000054604464035687F81B01746012801D040
:102720000226A3E06168C81FFD3802D1A068002816
:1027300024D0287F01282DD001202877FFF714FB13
:1027400000900298002871D0002F6FD00420687785
:102750000020206602992164AF80EF80A063A087EB
:10276000E087E064206507210120E2680902000398
:102770008A42226853680FD983430EE004206877A9
:1027800013460498029A00901146204600F022F960
:1027900005B0F0BD0220FBE7034353600123A068AE
:1027A000DB034022984208D120680368934303600A
:1027B000206803681702BB430360206803685B0658
:1027C00002D4036813430360E06888421AD93AE0F0
:1027D00020688168C90709D0007B216C0870206CD3
:1027E000401C2064E888401EE8800BE0FFF7BCFA3C
:1027F0000099411A0498814202D3401C02D005E09E
:10280000002803D0E8880028E2D11FE003262BE04F
:1028100020688168C9070AD0C068216C0880206CD4
:10282000801C2064E888401EE8800CE01AE0FFF776
:102830009BFA0099411A0498814202D3401C02D0AD
:10284000E4E70028E2D0E8880028E1D12046009A99
:10285000049900F067FD002801D020202066206E3A
:10286000002801D0012601E00120687700202877A8
:1028700030468DE7FFB5054604464035287F0027E2
:1028800081B01646012809D001202877FFF76CFA9D
:102890000090687F012804D0022797E0022005B04D
:1028A000F0BD0298002874D0002E72D00320687703
:1028B000002020660299A163A687E6872064A8808D
:1028C000E8802065E0640122A068D20340219042A4
:1028D00008D1206802688A430260206802680B02FF
:1028E0001A43026020680268520602D402680A4352
:1028F00002600721E06809028842606828D9002840
:1029000001D0012E1ED1A06B21680088C86006E0AE
:1029100020688168890709D5A16B0988C160A06B0F
:10292000801CA063E08F401EE0870BE0FFF71CFADD
:102930000099411A0498814202D3401C02D005E05C
:10294000002803D0E08F0028E2D128E003273BE0F5
:10295000002801D0012E1FD1A06B216800780873D8
:1029600006E020688168890709D5A16B09780173A1
:10297000A06B401CA063E08F401EE0870CE0FFF7D7
:10298000F3F90099411A0498814203D3401C03D003
:10299000DCE717E00028D9D0E08F0028E1D12046FD
:1029A000009A049900F0FAFC002801D0202020664B
:1029B000A068002803D12068C16880680090206E5C
:1029C000002801D0012701E0012068770020287746
:1029D000384664E7FFB5044683B0012025464035FC
:1029E0000090287F00271E4601280FD0012028775D
:1029F000FFF7BAF90190687F616801280DD0CA1FFE
:102A0000FD3A08D1A168002905D102E0022007B0F3
:102A1000F0BD042801D00227D4E0049800286FD02C
:102A200005980028FBD0002EF9D0687F042801D03B
:102A3000052068770020206605992164EE80AE802D
:102A40000499A163E687A687E06420650721012039
:102A5000E268090200038A422268536801D983436D
:102A600000E00343536020680268520603D4026802
:102A700040231A430260E0688842606848D9002811
:102A800001D0012E3DD1A06B01882068C160A06BF0
:102A9000801CA063E08F401EE08732E020688168E0
:102AA000890710D5E18F00290DD0009901290AD19D
:102AB000A16B0988C160A06B801CA063E08F401EE1
:102AC000E0870020009020688168C9070DD0E98860
:102AD00000290AD0C068216C0880206C801C20640A
:102AE000E888401EE88001200090FFF73DF9019939
:102AF000401A0C99884204D3481C02D003275FE097
:102B00005CE0E08F0028C9D1E8880028C6D148E001
:102B1000002801D0012E3ED1A06B216800780873F7
:102B2000A06B401CA063E08F401EE08733E020686C
:102B30008168890710D5E18F00290DD000990129FE
:102B40000AD1A16B09780173A06B401CA063E08FD0
:102B5000401EE0870020009020688168C9070DD0E2
:102B6000E98800290AD0007B216C0870206C401C89
:102B70002064E888401EE88001200090FFF7F4F808
:102B800001460198091A0C98814202D3401C02D0D8
:102B9000B4E70028B2D0E08F0028C8D1E888002828
:102BA000C5D12046019A0C9900F0F8FB002802D00C
:102BB000012720202066206E002801D0012701E097
:102BC0000120687700202877384620E7094910B5AA
:102BD000401E884201D9012010BD074C60610321CD
:102BE000081F01F06FFA0020A0610720206100207B
:102BF00010BD0000FFFFFF0000E000E010B501463F
:102C000080310A79012A15D001220A7124228A60B2
:102C10000268136814686408640014600122520793
:102C200093430022426600680360202088600A7196
:102C3000104610BD022010BD7047704770B50446A5
:102C400005468034207901281AD0012020712420E3
:102C5000A06028680668026852085200026028686E
:102C6000826807235B069A430A438260284600F085
:102C7000BDFC286806602020A0600020207170BD87
:102C8000022070BD70B504460546803420790128C5
:102C900019D0012020712420A060286806680268ED
:102CA00052085200026028688268D200D2080A43A3
:102CB0008260284600F09AFC286806602020A06008
:102CC0000020207170BD022070BD704770477047B2
:102CD000F8B503680446D96918689A68B44D0E4679
:102CE0002E4025468035002E75D0B24EB24F16408C
:102CF000074037436ED0CF0706D0C70504D501275C
:102D00001F622B693B432B618B0708D5D30706D085
:102D1000276802233B622B6904273B432B614B0747
:102D200008D5D30706D0276804233B622B69022706
:102D30003B432B610B0709D520230340334305D0C8
:102D40002668082333622E691E432E610B0509D5C0
:102D5000430107D501232668DB0233622B69202655
:102D600033432B612B69002B42D089060AD52021E1
:102D70000840C9050A40104304D0616F002901D002
:102D800020468847286921688968490602D4282195
:102D9000084232D0204600F017FD216888684006BE
:102DA00027D5EFF31080012282F310888B68402230
:102DB00093438B6080F310882868002819D07F49DE
:102DC00081632868FEF7C6FE002811D02868816B51
:102DD0000DE000E017E08E0615D5012720263F07FD
:102DE000064017403E430ED0616FB5E0204688474D
:102DF000F8BD2046FFF76BFFF8BD2046FFF767FFE1
:102E000000202861F8BDE66E012E7DD1CE067BD56F
:102E1000C60679D510221A622368986826464006AD
:102E20004036002849DA2968086840680004000C28
:102E3000E8D0B78B8742E5D9F08308680068800640
:102E400034D4EFF31080012181F310881968170141
:102E5000B943196080F31088EFF31080012181F3EA
:102E6000108821688B685B085B008B6080F310889A
:102E7000EFF31080012181F3108821688B684027CF
:102E8000BB438B6080F310882020E8600020E06660
:102E9000EFF31080012181F3108821680B689343C0
:102EA0000B6080F310882868FEF71AFE0220206766
:102EB000B08BF18B401A81B235E0B08BF18B401AA8
:102EC00081B2F08B00289DD000299BD0EFF31080B9
:102ED000012686F310881E68FF272137BE431E6037
:102EE00080F31088EFF31080012383F310882368A8
:102EF0009E68304FFF433E409E6080F31088202044
:102F0000E8600020E06600E011E06067EFF3108009
:102F1000012383F3108823681D6895431D6080F3A7
:102F20001088022020672046FFF786FEF8BDCE02FB
:102F300008D5560206D50120000518622046FFF785
:102F4000C5FEF8BD0E060BD501278026FF050640FD
:102F50003A40164304D0A16F002900D046E7F8BDDF
:102F60004A0614D5420612D52046EFF310810122FD
:102F700082F310881A684024A2431A6081F31088F3
:102F80002021A9600021816700F03BF9F8BD0A0209
:102F900005D5420003D52046FFF797FEF8BDC901CD
:102FA000FCD50028FADA2046FFF747FEF8BD0000FE
:102FB0000F0800000100001020010004B5370008D0
:102FC00070B5040005D025468035A868002802D0D9
:102FD00006E0012070BD00202871204600F026F890
:102FE0002420A86020680168490849000160A06A9F
:102FF000002802D0204600F01BFB204600F09AFE7D
:103000000128E7D0206841680922D202914341603B
:10301000206881682A22914381602068016801222A
:1030200011430160204600F069FB70BD10B58CB003
:10303000044614216846FDF78BF9182105A8FDF711
:1030400087F91A49206888422DD101200024059073
:10305000069405A8FEF71AFF002801D0FEF73DFDF3
:1030600013480268012189030A430260006808408E
:103070000B900F484038426B02210A434263406B79
:103080006A4608400B90C02013C203946946094861
:103090000494FEF7AFFD002211461B20FEF7CCFE84
:1030A0001B20FEF7BDFE0CB010BD00000038014033
:1030B000401002400004005070B58C231B58202B98
:1030C00001D0022070BD00290BD0002A09D00124B4
:1030D00083682403A34206D10369002B03D1CB07E5
:1030E00001D0012070BD0023C366046863681B0221
:1030F0000BD5EFF31083012585F310882568012691
:10310000B6063543256083F3108800F0C7FE70BD16
:10311000064910B5884208D10548007801F056FAF2
:10312000012203490148FFF7C7FF10BD84000020BA
:103130001E000020FFB5064604468036B06883B006
:103140000D46202802D0022007B0F0BD002D0CD083
:103150000598002809D00120A1680003814206D10A
:103160002069002803D1E80701D00120ECE7002006
:1031700030612120B060FEF7F7FD0190274640370F
:103180000598B8820598F8820120A1680003814261
:1031900002D12069002802D00295002515E0002008
:1031A000029012E000228021204600F00DFF00284E
:1031B00018D10298002819D02168007888620298F6
:1031C000401C0290F88A401EF882F88A019B002871
:1031D00006980090E6D100224021204600F0F4FE3F
:1031E00000280AD02020B0600320ADE7288821689D
:1031F000C005C00D8862AD1CE4E72020B06000204F
:10320000A2E77047FEE7000070B586B0142168465B
:10321000FDF79EF81448426B02210A434263426B59
:103220000A400592416B012421434163406B05260E
:10323000204036070590224618213046FEF78DFDC6
:103240000420002500906946019502943046FEF75F
:10325000D1FC1820694631C10320039069463046ED
:10326000FEF7C8FC06B070BD0010024010B5114852
:103270000F490160FF210531416000210722816073
:1032800012020161C2600122416152028261016247
:1032900010224162C26181620722C2620163082179
:1032A0004163FFF78BF9002801D0FEF716FC10BD33
:1032B000003001402000002010B518481649016078
:1032C000E1214902416000218160C16001618161A9
:1032D000C16101620C22416242618162FFF770FEAE
:1032E000002801D0FEF7F9FB00210C48FFF7CAFCCB
:1032F000002801D0FEF7F1FB00210848FFF79EFCF3
:10330000002801D0FEF7E9FB0448FFF777FC00280E
:1033100001D0FEF7E2FB10BD003801408400002020
:10332000FEE77047F7B504464068FF26053682B0D1
:103330001546B0420CD10121A068C903884202D0D1
:103340004911884204D120680168402291430160FC
:103350000095002280212046039B00F0B1F8202731
:10336000002813D16068B04216D1A068B902884223
:1033700002D0491188420FD1032100950022490251
:103380002046039B00F030F8002805D0206E38431B
:103390002066032005B0F0BD0020FBE7F8B50F461E
:1033A0000B4615460092032104460022C90200F094
:1033B0001BF82026002812D13B46002280212046FF
:1033C000009500F07DF8002809D103213B4600223A
:1033D00049022046009500F007F8002803D0206E2F
:1033E000304320660320F8BDFFB585B00E46044685
:1033F000002069460E9D17460871FEF7B5FC411B7B
:103400000898451AFEF7B0FC0390206823210C3081
:1034100002902A4800684843000D684346E00320B4
:103420004002864206D1002F04D1029801786846F6
:10343000017100790898401C39D0FEF795FC03997A
:10344000401AA84205D2002D03D0009800282BD0A6
:103450002BE020684168E022914341606068C11F11
:10346000FD390CD10121A068C903884202D049115D
:10347000884204D120680168402291430160012004
:10348000A16A4003814207D121680A6882430A6029
:1034900021680A6802430A600120403460770020F6
:1034A0002077032009B0F0BD0025401E0090206861
:1034B00080683040B842B2D10020F3E70C00002011
:1034C000FFB581B01E4604460A9DFEF74DFC401B29
:1034D000351AFEF749FC0746264800684001000DF2
:1034E000684339E0701C38D0FEF73EFCC01BA84290
:1034F00005D2002D03D0009800282BD02BE02068A7
:103500004168E022914341606068C11FFD390CD1E0
:103510000121A068C903884202D04911884204D120
:10352000206801684022914301600120A16A4003A4
:10353000814207D121680A6882430A6021680A68CB
:1035400002430A6001204034607700202077032086
:1035500005B0F0BD0025401E0090206881680298EB
:10356000884305D0002103988142BBD10020EFE7BA
:103570000121F8E70C000020704710B5FEF7FAFBB8
:1035800010BD30B591B034216846FCF7E1FE00254E
:1035900001200D950E950F9540021095FEF750FCF9
:1035A0000224E001039000944020059008200A9036
:1035B00080030B900794000304950C9009950894E0
:1035C0006846FEF70FFE002801D072B6FEE707201E
:1035D0000DA931C102210DA81095FEF7FDFC0028B0
:1035E00001D072B6FEE711B030BD7047F8B50446A1
:1035F000416E4034002915D0006881688068090157
:103600004D0F0A4E400F3746315C083F385CC00012
:10361000FCF7A0FE6085785D715DC000FCF79AFE46
:103620002085F8BD01206085FAE70000C446000847
:1036300010B5018D090707D501684A680123DB032E
:103640009A43836B1A434A60018DC90707D001680A
:103650004A6801235B049A43C36A1A434A60018D96
:10366000890707D501684A6801231B049A43036B45
:103670001A434A60018D490707D501684A6801234A
:103680009B049A43436B1A434A60018DC90607D5D0
:103690000268916801231B039943C36B194391602E
:1036A000018D890607D501688A6801235B039A4367
:1036B000036C1A438A60018D490612D503685A6863
:1036C00001210905446C8A4322435A60426C8A42B4
:1036D00007D10268516803235B059943836C194342
:1036E0005160018D090607D501684A680123DB0492
:1036F000C06C9A4302434A6010BD0000FEB5054607
:103700000026803504462E61FEF72EFB01902068CE
:10371000006820270007002817DA254800900022BB
:1037200039042046019B00F04FFC00280DD0EFF338
:103730001080012181F3108821680A6880239A4350
:103740000A6080F31088AF6028E0206800684007B6
:1037500027D5174800900121002289052046019BAA
:1037600000F032FC00281CD0EFF31080012181F31F
:10377000108821680A68FF2321339A430A6080F386
:103780001088EFF31080012181F3108821688A6886
:10379000520852008A6080F31088EF602E71032077
:1037A000FEBDAF60EF60E66626672E710020FEBDAD
:1037B000FFFFFF0110B5806A002201464031CA8335
:1037C000CA82FFF784FA10BD10B5EFF31081012211
:1037D00082F3108802681368FF242134A343136026
:1037E00081F31088EFF31081012282F310880268C0
:1037F00093680D4C2340936081F31088C16E0129BA
:103800000BD1EFF31081012282F310880268136854
:103810001024A343136081F3108820228C210A50C6
:103820000021C166416710BDFEFFFFEF70B5014684
:103830004031034680330C8CDD680268222D04D0B1
:10384000906908210843906170BD526A856D2240DD
:103850002A80826D921C8265CA8B521ECA83CA8BD3
:10386000002AF1D1EFF31082012484F31088046858
:103870002568FF262136B543256082F31088EFF3D3
:103880001082012484F310880468A5686D086D0017
:10389000A56082F310882022DA6000234367036763
:1038A0000468626812020BD5EFF31082012585F3DC
:1038B000108825680126B606B543256082F3108876
:1038C000C26E012A02D0FFF723FC70BDC366EFF37E
:1038D0001082012383F310880468256810239D4318
:1038E000256082F310880268D469E443E40600D4BA
:1038F0001362898BFFF7A0F970BD0000F0B5054693
:10390000044640358BB0288C02902068C669016857
:10391000069181680491214680310091C96822296D
:1039200005D081690822114381610BB0F0BD2F8D54
:1039300079E02068406A029AA16D10400880A06D6D
:10394000801CA065E88B401EE8832068C66971076B
:1039500031D0F10709D00699C90506D501210162C8
:1039600000980069084300990861B0070BD50498D6
:10397000C00708D02168022008620098006904216D
:1039800008430099086170070BD50498C00708D058
:103990002168042008620098006902210843009908
:1039A000086100980069002805D02046FFF78FF9CC
:1039B000009900200861E88B002834D1EFF31080D3
:1039C000012181F3108821680A68FF2301339A439B
:1039D0000A6080F31088EFF31080012181F31088D2
:1039E00021688A68304B1A408A6080F310880098FA
:1039F0002021C160002060672067216848680002BC
:103A00000BD5EFF31080012282F310880A6801239E
:103A10009B069A430A6080F31088E06E012829D043
:103A20002046FFF775FB002F01D0B00681D4E88B4C
:103A3000002800D179E7298D8142FBD9EFF310806E
:103A4000012181F3108821688B68012212079343BA
:103A50008B6080F3108815486067EFF310800121B8
:103A600081F310882268116820231943116080F3C4
:103A700010885AE70020E066EFF31080012181F3FF
:103A800010882268136810218B43136080F310881C
:103A90002068C269D243D20600D40162A98B2046B5
:103AA000FFF7CAF8BFE70000FEFFFFEF2D38000860
:103AB00070B501464031034680330C8CDD680268E6
:103AC000222D04D0906908210843906170BD526A8C
:103AD0002240846D2270826D521C8265CA8B521EF8
:103AE000CA83CA8B002AF1D1EFF31082012484F338
:103AF000108804682568FF262136B543256082F3C7
:103B00001088EFF31082012484F310880468A568FC
:103B10006D086D00A56082F310882022DA60002312
:103B2000436703670468626812020BD5EFF31082E3
:103B3000012585F3108825680126B606B543256062
:103B400082F31088C26E012A02D0FFF7E1FA70BD3D
:103B5000C366EFF31082012383F31088046825689D
:103B600010239D43256082F310880268D469E443E2
:103B7000E40600D41362898BFFF75EF870BD000085
:103B8000F0B50546044640358BB0288C029020687D
:103B9000C6690168069181680491214680310091CF
:103BA000C968222905D081690822114381610BB0BF
:103BB000F0BD2F8D79E02068406A02990840A16D20
:103BC0000870A06D401CA065E88B401EE88320684B
:103BD000C669710731D0F10709D00699C90506D524
:103BE0000121016200980069084300990861B0074B
:103BF0000BD50498C00708D02168022008620098FD
:103C00000069042108430099086170070BD50498E6
:103C1000C00708D0216804200862009800690221CA
:103C200008430099086100980069002805D02046E3
:103C3000FFF74DF8009900200861E88B002834D187
:103C4000EFF31080012181F3108821680A68FF23B7
:103C500001339A430A6080F31088EFF3108001214A
:103C600081F3108821688A68304B1A408A6080F39B
:103C7000108800992020C8600020606720672168B4
:103C8000486800020BD5EFF31080012282F3108800
:103C90000A6801239B069A430A6080F31088E06E4D
:103CA000012829D02046FFF733FA002F01D0B006B3
:103CB00081D4E88B002800D179E7298D8142FBD996
:103CC000EFF31081012080F31088206882680123BF
:103CD0001B079A43826081F3108815486067EFF3F1
:103CE0001080012181F3108821680A6820231A437B
:103CF0000A6080F310885AE70020E066EFF3108036
:103D0000012181F310882268136810218B4313600E
:103D100080F310882068C269D243D20600D40162C1
:103D2000A98B2046FEF788FFBFE70000FEFFFFEFEC
:103D3000B13A0008F8B5044680682169E269084391
:103D40006169002511432268084311684B4B1940F3
:103D50000143116020684168032212039143E26825
:103D600011434160A169206A084321688A68444B75
:103D70001A4002438A602068C16A626A090909011F
:103D80001143C1623F492068884211D13E484069D1
:103D90008007800F0FD0012806D0022802D0032808
:103DA0000BD103E0022109E0042107E0082105E02E
:103DB0003649884201D1002100E010210120E36949
:103DC000C003334A334E344F834227D1002906D0F3
:103DD000022907D0042907D008293FD108E0FEF7BF
:103DE000A7F903E0104603E0FEF7B6F900283AD041
:103DF000616A4900715AFCF7ADFA616840004A08EF
:103E00008018FCF7A7FA01461039B94226D8224992
:103E1000491C01400007400F084322E0002906D05A
:103E2000022907D0042907D0082917D108E0FEF796
:103E30007FF903E0104603E0FEF78EF9002812D068
:103E4000616A4900715AFCF785FA61684A0880186E
:103E5000FCF780FA01461039B94201D9012502E088
:103E600080B22168C860204601214030418501852B
:103E700000206067A0672846F8BD0000F369FFCF07
:103E8000FFF4FF11003801404010024000440040A0
:103E90000024F400A4460008EFFF0000F0B581659F
:103EA000014640318A83CA8300254567012483681F
:103EB0002403FF26A34204D10369002B13D13D4BF9
:103EC0000AE07F27002B09D001263607B3420CD128
:103ED0000369002B05D03F230B8407E00369002B07
:103EE00001D00F8402E00E8400E00D84034680338D
:103EF0001D612225DD60EFF31083012585F3108815
:103F00000568AE6801273E43AE6083F31088436EB8
:103F10007D07AB4229D1098D914226D88168A14203
:103F200002D1016900291DD0234941670169002997
:103F30000CD0EFF31081012282F31088026813681D
:103F4000FF2401342343136081F31088EFF31081C1
:103F5000012282F310880068826801231B071A433C
:103F6000826023E015494167F0E78168A14202D1F0
:103F7000016900290ED012494167016900290BD05F
:103F8000EFF31081012282F3108800680268FF239A
:103F9000213309E00B494167EFF31081012282F3DD
:103FA00010880068026820231A43026081F3108899
:103FB0000020F0BDFF010000813B0008FD38000833
:103FC000B13A00082D380008FFB581B005460E460D
:103FD000044680350A9F32E0781C30D0FDF7C4FEDD
:103FE0000499401AB84218D8002F16D020680168EA
:103FF000490724D5802E22D0402E20D0C169C94344
:1040000009070CD4082606622046FFF7DDFB2E6167
:1040100000202871012005B0F0BD0320FBE7C06936
:10402000C04300050BD401202168C002086220466D
:10403000FFF7CAFB2020286100202871EDE72068E7
:10404000C1693046884305D0002103988142C3D01E
:104050000020E0E70121F8E710B50248FEF738FE3E
:1040600010BD000084000020F8B5040C8BB2264679
:1040700082B25E43104658430D0C370C36040021C3
:104080008019164679416E43370C3604801926464E
:1040900079416E438919F8BD4900CA0202431000F4
:1040A00000D004204A0D01D001221043044A490DDA
:1040B000914201D102210843012800D10520704717
:1040C000FF0700008307FF22DB0E9A408907090ED5
:1040D0009940002808DB830809489B001B181868D2
:1040E00090430843186070470007000F08388308A2
:1040F00004489B001B18D86990430843D861704757
:1041000000E400E000ED00E030380A2801D2012090
:10411000704700207047FDF735FEFFF732FAFFF7D2
:1041200073F8FFF7A3F8FFF7C7F800F0F5F900F010
:1041300025FAFCE77FB510A103C90090002001918A
:104140000290039005226946102000F095F905229F
:1041500002A9102000F0F2F8012000216B4602AA0B
:104160005C5C555CAC4202D0002004B070BD491CC0
:10417000C9B20529F4D3F8E7A5A5A5A5A5000000B7
:1041800070B500F03DF8052504462D0700221021EA
:104190002846FDF7E2FD272000F006F9204600F052
:1041A00003F9012210212846FDF7D7FD70BD00005C
:1041B00070B5052405462407002210212046FDF78E
:1041C000CCFDB02000F0F0F80023DB43202229468C
:1041D0000A48FEF74FFB012210212046FDF7BDFDE6
:1041E00004212046FDF7B4FD0028F9D1072000F096
:1041F000C3F80146072000F05DF970BD20000020E3
:1042000070B505252D07002210212846FDF7A5FDD4
:10421000072000F0C9F80446012210212846FDF7C6
:104220009CFD204670BD000070B505460024FFF7D8
:1042300081FF00284ED02DA000F054F9052424075A
:10424000002208212046FDF788FD0120FDF7C0FC73
:10425000FFF796FF01211C2000F02CF907211D20FB
:1042600000F028F90A21002000F024F90121084675
:1042700000F020F90121022000F01CF9032108467A
:1042800000F018F9FF21042000F014F9262106207F
:1042900000F010F905211D4800F0E3F81B49052244
:1042A000491D002000F0B8F8012000F0C1F83C20C2
:1042B00000F08CF8052000F0A0F8284600F08DF8FA
:1042C000012208212046FDF748FD0120FDF780FC72
:1042D000012070BD0EA000F005F90A20FDF778FC62
:1042E000641CE4B2052CA2D3002070BD53493234C3
:1042F000523120636F6E6E656374696F6E20636800
:1043000065636B204F4B2E0D0A000000100000204B
:1043100073693234723120636F6E6E656374696FD6
:104320006E20636865636B206661696C65642E202E
:1043300072657472792E2E2E0D0A0000F8B50524D0
:1043400015460E4607462407002210212046FDF799
:1043500004FD384600F028F80023DB432A463146A6
:104360000448FEF7D3F9012210212046FDF7F5FCA1
:10437000F8BD00002000002070B5052504462D077B
:10438000002210212846FDF7E8FC204600F00CF83A
:10439000FF2000F009F80446012210212846FDF70D
:1043A000DCFC204670BD000001B582B000216846EB
:1043B0000171481E0090012301AA02A90248FEF7DC
:1043C00009FB684600790EBD20000020410610B5AB
:1043D000490E052000F06EF810BD10B5044600200F
:1043E000FFF7CAFF002C05D001210143002000F097
:1043F00061F810BD41084900F8E710B504460728E8
:1044000000D907240620FFF7B7FFC108C9002143E0
:10441000062000F04FF810BD10B5052A00D905227E
:10442000052800D905200A30C0B200F025F810BDDB
:1044300010B504460620FFF79FFFD7221040014623
:10444000002C04D0012C04D0022C04D005E0202044
:1044500002E0114001E008200143062000F02AF8A4
:1044600010BD10B5052900D905210A4601461020C6
:1044700000F002F810BD0000F8B5052516460F46FD
:1044800004462D07002210212846FDF766FC202057
:104490002043FFF789FF0023DB43324639460448B7
:1044A000FEF7E8F9012210212846FDF756FCF8BD79
:1044B0002000002070B505250E4604462D07002279
:1044C00010212846FDF749FC204620210843FFF72C
:1044D0006BFF3046FFF768FF012210212846FDF7E9
:1044E0003CFC70BD0FB410B503AB80210848029AA4
:1044F000FBF7D2FE0648FBF7EBFE82B27D23DB0022
:1045000003490448FEF716FE10BC08BC04B0184767
:10451000580100208400002010B56420FDF758FBEE
:1045200008A0FFF7DFFF0BA0FFF7DCFF0020FFF77D
:104530007BFE0CA0FFF7D6FF01220E490E48FEF7C6
:10454000BBFD10BD53797374656D20496E69740DA0
:104550000A00000053493234523120496E69740D0B
:104560000A00000055415254205258205374617281
:10457000740D0A001E0000208400002010B50648BB
:104580000178002907D0002101700448FFF710FED0
:1045900003A0FFF7A7FF10BD1A000020380100207C
:1045A0005349323452312053656E64204672616D36
:1045B0006520537563636573730D0A00024800211B
:1045C000C1704170817070471A00002030B501241D
:1045D0001449AA2823D0CA78002A1FD0124A4B783F
:1045E000D0545B1CD8B24870202817D3002318463B
:1045F000155C401CEB18C0B2DBB21F28F8D3D07F8B
:10460000984209D1084B00202033155C1D54401CF2
:10461000C0B22028F9D30C70FFF7D0FF30BDCC70AA
:1046200030BD00001A0000201801002010B500293C
:104630000AD00878002807D005487844FDF702FA28
:10464000002801D0002010BD0248784410BD0000B1
:104650000E0200000602000010B500290AD00878FA
:10466000002807D005487844FDF7ECF9002801D070
:10467000002010BD0248784410BD0000FE0100007B
:10468000F601000003B402487844844603BC604746
:1046900053C6FFFF03B402487844844603BC604716
:1046A000BDC8FFFF010002000400060008000A0068
:1046B0000C001000200040008000000101010103F7
:1046C00007010000080402040801010100000000C5
:1046D00000000000000000000000000000000000DA
:1046E00000000000000000000000000001000000C9
:1046F00002000000030000000400000006000000AB
:104700000700000008000000090000000000000091
:104710000000000000000000000000000100000098
:104720000200000003000000040000000000000080
:1047300000000000303132333435363738394142E9
:1047400043444546403058003031323334353637F3
:10475000383961626364656640307800040000089F
:1047600000000000000000020001000010303132A3
:104770003334353637383961626364656678700082
:104780003031323334353637383941424344454687
:104790005850000002400000000000A0000000008F
:1047A00005400000000000C8000000000C400000B0
:1047B0000000409C00000000194000000020BCBE2A
:1047C0000000000034400000BFC91B8E0000000440
:1047D000B5400000504BCFD06607E2CF010000008B
:1047E0006C4100003E8251AADFEEA73401000000B8
:1047F000D9420000DCB5A0E23A301F97FFFFFFFF6F
:10480000B4450000FD25A0C8E9A3C14FFFFFFFFF8D
:10481000FF3F00000000008000000000FF3F00009C
:104820000000008000000000744900080000002023
:104830002000000004010008944900082000002026
:1048400018080000200100081C00000043000000C0
:10485000F8FFFFFF0C0000000E0000000F0000003A
:104860002E0000001001000043000000F8FFFFFFD1
:104870000040404040404040404041414141414073
:104880004040404040404040404040404040404028
:1048900040050202020202020202020202020202B7
:1048A00002202020202020202020200202020202BC
:1048B0000202909090909090101010101010101014
:1048C0001010101010101010101010100202020220
:1048D0000202888888888888080808080808080864
:1048E0000808080808080808080808080202020260
:1048F0004000000000000000000000000000000078
:1049000000000000000000000000000000000000A7
:104910000000000000000000000000000000000097
:104920000000000000000000000000000000000087
:104930000000000000000000000000000000000077
:104940000000000000000000000000000000000067
:104950000000000000000000000000000000000057
:104960000000000000000000000000000000000047
:104970000000000001000000040000000000000032
:104980000024F400344310100134431010010000DF
:044990000000000023
:04000005080000C12E
:00000001FF
