:020000040800F2
:10000000B0100020D5020008E74D00089D30000820
:10001000E54D0008931D0008A950000800000000ED
:10002000000000000000000000000000A14F0008D8
:10003000E11D000800000000E94D0008A34F000882
:10004000EF020008EF020008EF020008EF020008CC
:10005000EF020008EF020008EF020008EF020008BC
:10006000EF020008EF020008EF020008EF020008AC
:10007000EF020008EF020008EF020008EF0200089C
:10008000EF020008EF020008EF020008EF0200088C
:10009000EF020008EF020008EF020008EF0200087C
:1000A000EF020008EF020008EF020008EF0200086C
:1000B000EF02000851500008EF020008EF020008AC
:1000C000EF020008EF020008EF020008EF0200084C
:1000D000EF020008EF020008EF020008EF0200083C
:1000E000EF020008EF020008EF020008EF0200082C
:1000F000EF020008EF020008EF020008EF0200081C
:10010000EF020008EF020008EF020008EF0200080B
:1001100085500008EF02000869500008EF0200084F
:10012000EF020008EF020008EF020008EF020008EB
:10013000EF0200080000000000000000EF020008CD
:10014000EF020008EF020008EF020008EF020008CB
:10015000951D0008EF020008C11D0008EF0200080D
:10016000EF020008EF020008EF020008EF020008AB
:10017000EF020008EF02000800000000000000008D
:10018000EF020008EF02000800F002F800F092F819
:100190000AA090E8000C82448344AAF10107DA45E2
:1001A00001D100F087F8AFF2090EBAE80F0013F0A2
:1001B000010F18BFFB1A43F00103184760850000C8
:1001C00080850000103A24BF78C878C1FAD8520759
:1001D00024BF30C830C144BF04680C6070470000C1
:1001E0000023002400250026103A28BF78C1FBD840
:1001F000520728BF30C148BF0B6070476E2900F01E
:100200002F82702900F07983662907F066856529B9
:1002100007F06385672907F06085612907F05F852E
:1002200003681B0A28BF41F08001692900F0DC81C6
:10023000642900F0D981752900F0D6816F2900F07A
:100240000683782900F04583E92900F0A182E4299A
:1002500000F09E82F52900F09B82EF2900F00383D5
:10026000F82900F044830368DB0928BF41F08001CE
:10027000632901F04B80732901F05080E32901F0DC
:100280005B80F32901F06080002070471FB507F004
:100290001FFD01F0AFF804000020002107F002FD6F
:1002A000401C60600020002107F0E6FCE0601FBDFC
:1002B00010B510BD01F070F81146FFF7E7FF06F02A
:1002C000E7FB01F04DF903B4FFF7F2FF03BC01F0C7
:1002D00091F900000948804709480047FEE7FEE71A
:1002E000FEE7FEE7FEE7FEE7FEE7FEE7FEE7FEE7E6
:1002F00004480549054A064B704700004150000874
:1003000089010008B00A0020B0100020B00C0020C5
:10031000B00C002053EA020C00F069802DE9F04B8C
:100320004FF00006002B1FBFB3FA83F503FA05F464
:1003300024FA05F65E4012BF1643B2FA82F502FABD
:1003400005F4C5F120051EBF22FA05FC44EA0C04A1
:10035000203556EA044C4FEA144418BF641C4FF091
:1003600000084FF00009904271EB030C39D30029CB
:1003700019BFB1FA81F701FA07F6B0FA80F700FA6F
:1003800007F6C7F120071EBF20FA07FC46EA0C0655
:100390002037B6FBF4FCA7EB0507103F07F01F0B57
:1003A000CBF120060CFA0BFB2CFA06F644BFB34641
:1003B0000026202FA4BF5E464FF0000B5BEA060C20
:1003C00008BF4FF0010B19EB0B09ABFB027C48EBAC
:1003D0000608C01B06FB02CC0BFB03CC71EB0C0127
:1003E000C1E70B46024641464846BDE8F08B13B5CF
:1003F0004FF000004FF00001AFF30080BDE81C405B
:10040000704700007CB51D4616460C00009001D0D8
:100410002044401E074B7B442A46694601903046E3
:1004200000F037F905461CB10020694600F044F998
:1004300028467CBDA902000010B5431C02E010F85C
:10044000011B71B18107FAD14FF0013202C88C1A39
:100450008C4314EAC211F9D0C01A0A0603D0C01E98
:1004600010BDC01A10BD0A0401D0801E10BD0902C3
:10047000FCD0401E10BD4FF000020429C0F01280D5
:1004800010F0030C00F01B80CCF1040CBCF1020F47
:1004900018BF00F8012BA8BF20F8022BA1EB0C011C
:1004A00000F00DB85FEAC17C24BF00F8012B00F812
:1004B000012B48BF00F8012B70474FF0000200B538
:1004C000134694469646203922BFA0E80C50A0E877
:1004D0000C50B1F12001BFF4F7AF090728BFA0E825
:1004E0000C5048BF0CC05DF804EB890028BF40F8F1
:1004F000042B08BF704748BF20F8022B11F0804F33
:1005000018BF00F8012B704770477047704710B54F
:1005100000F0C2FA006810BD10B5044600F0BCFA45
:10052000046010BD70B5044685690068C10601D538
:10053000302600E02026C00707D070BDD4E9012195
:1005400030469047206A401C20626D1EF6D570BD73
:1005500070B5044685690078C00707D170BDD4E93D
:10056000012120209047206A401C20626D1EF6D594
:1005700070BD09684A0501D540B27047C905FCD570
:1005800000B2704709684A0501D5C0B27047C90575
:10059000FCD580B2704770B50C460546012A05D0DF
:1005A0002878800600D5EA69002302E0012305E0EF
:1005B0005B1C934202D2E05C0028F9D1A869E618DE
:1005C000C01AA861286A184428622846FFF7AAFFC3
:1005D00004E0D5E9012114F8010B9047B442F8D3A7
:1005E0002846FFF7B5FF70BD2DE9F041064600240F
:1005F00010687529314616A510D0FFF7BAFF0028FC
:1006000002DA404213A507E031688A0701D512A536
:1006100002E0490704D511A5012401E0FFF7B2FF6C
:1006200000210A2206F1240709E0B0FBF2FCB0FB2E
:10063000F2F302FB1C00303078541846491C0028A5
:10064000F3D123462A463046BDE8F04100F06DBAAA
:10065000000000002D0000002B0000002000000022
:1006600011680268006A530501D508700AE0D305D5
:1006700001D5088006E0130603D5C217C1E90002C0
:1006800000E008600120704701694A1C0261087897
:10069000704700B58FB0CDE90131002105910549C2
:1006A0007944CDE903101146684600F031F90FB0E6
:1006B00000BD0000E5FFFFFF0A6802F8010B0A60B9
:1006C0007047D1E900239A4202D2531C0B6010708C
:1006D000704700002DE9FF5F15468A460446DFF8A3
:1006E000AC80F8440027D8E900103E46CDE9001060
:1006F00010E03AF816106A4602A800F029FE411CE4
:1007000007D02178890603D5E269391891420DD8BE
:100710000744761C2078800602D5E069B84205DDE2
:10072000AE42E6DB3AF816000028E2D1A069C01B11
:10073000A0612046FFF7F6FED8E90010CDE90010D1
:10074000002017E03AF818106A4602A800F000FEF0
:10075000B0F1FF3F81460BD000250DF1080B05E0FD
:10076000D4E901211BF8050090476D1C4D45F7D3D6
:1007700008F10100B0428046E4DB206A3844206280
:100780002046FFF7E5FEBDE8FF9F00003A7F00002E
:100790002DE9F0418046D21D22F007020025D2E962
:1007A0000002F52915A614D0011E72F1000106DA27
:1007B0000023D0EB030063EB020211A608E0D8F897
:1007C00000108B0701D50FA602E0490701D50EA640
:1007D00001251146002408F1240704E000F060F927
:1007E00030323A55641C50EA0102F7D12B463246AA
:1007F00021464046BDE8F04100F097B900000000F6
:100800002D0000002B0000002000000030B400216B
:1008100000F1240408E002F00705D208303542EA6E
:100820004372DB086554491C52EA0305F3D104689E
:10083000002310A2250707D5A40600D421B1C4695E
:1008400001230DA2641EC46130BC00F06EB910B566
:10085000044621461068FFF795FE02462046BDE893
:1008600010400023D2E7D21D22F00701D1E9002376
:10087000CCE700000000000030000000F0B40D469E
:100880000188090502D5214C7C4402E01F4C7C44C0
:100890000E34002100F1240608E002F00F071209CF
:1008A000E75D42EA03721B097754491C52EA0307C9
:1008B000F3D102780023120704D5702D06D009B1B8
:1008C000022311342246F0BC00F02FB9012310346A
:1008D000F8E770B504460D4621461068FFF752FE52
:1008E000024629462046BDE870400023C6E7D21DD7
:1008F00022F00703D3E90023C0E70368126843F03E
:10090000200303600823C3610023B7E79C7D000038
:100910002DE9F05F894604464FF0000ADFF874B114
:10092000FB44C0F820A02046E1688847002874D026
:10093000252806D0D4E901219047206A401C206276
:10094000F1E700265F462046E168884720280546F3
:1009500007DB312D05D2781910F8200C08B10643B9
:10096000F1E7B00701D526F00406C4F81CA0002763
:10097000C4F818A02A2D09D0284604F07BFD38B30E
:1009800004EB8708303DC8F8185019E059F8041BEB
:10099000204604EB87029161E1688847012F0546F4
:1009A00018D1E069002820DA26F020061DE0D8F8EA
:1009B000180000EB800005EB40003038C8F8180044
:1009C0002046E1688847054604F054FD0028EED132
:1009D000012F0AD02E2D08D12046E16888477F1CC0
:1009E0000546022F46F02006C4DBA069002803DA82
:1009F000404246F00106A061F00701D026F0100643
:100A00006C2D0BD0682D09D04C2D39D06A2D35D0E6
:100A1000742D35D07A2D33D016E038E0E1682F46BA
:100A200020468847B842054609D16C2F26D04FF49E
:100A30008060E168064320468847054604E06C2F45
:100A40001AD04FF4807006430DB3A5F14100192868
:100A500002D8203546F400664A46294620462660DC
:100A60004E46FFF7CBFB80B101280BD0F61D26F0D8
:100A7000070000F1080956E74020E4E78020D8E7A6
:100A80000020D6E706F104094DE7284652E7206A20
:100A9000BDE8F09F2C7D000000487047500A002000
:100AA00030B5B0F10A024FEA900E71F100034EEA40
:100AB000817EB0EB0E0061EB91014FEA101E4EEA11
:100AC000017E10EB0E0041EB11114FEA102E4EEAA1
:100AD000016E10EB0E0041EB11214FEA104E4EEA71
:100AE000014E10EB0E0041EB1141401841F10001A5
:100AF0004FEAD00040EA41704FEAD10110EB800587
:100B00004FEA810444EA907444EB01046D1944EB0C
:100B10000404521BA3414FF0000348BF0A3200D522
:100B200030BD401C41F1000130BD2DE9F0470D46BC
:100B300099469246044600F124080168880604D5C7
:100B4000E06921F01001216000E00120A84201DDF0
:100B5000471B00E00027A1697A1902EB0900081A77
:100B6000A0612078C00602D42046FFF7DBFC0026F7
:100B700008E0D4E901211AF806009047206A401CD9
:100B8000761C20624E45F4DB2078C0060AD520464C
:100B9000FFF7C8FC06E0D4E9012130209047206A25
:100BA000401C2062381EA7F10107F4DC07E0D4E9FD
:100BB000012118F805009047206A401C2062281E79
:100BC000A5F10105F3DC2046FFF7C2FC2078000602
:100BD00002D50220BDE8F0870120FBE770472DE930
:100BE000FF4F0C461E464FF0FF378BB0D2E9000195
:100BF000DDF860800A908A46C1F30A5505B93D4682
:100C0000002108464FF00000BAF1000F00F4400048
:100C100005DA00EB80004FF4400101EA50004FEA92
:100C20009059B9F1010F00DDB9460A9850EA4A001F
:100C30000ED044F61050A5F2FF3545432F14B8F1FD
:100C4000000F1ED07542291E1EDDC9F100021CE0F6
:100C5000B8F1010F4FF0000001D0302103E0F24362
:100C600005E02154401CB042FBDB3046002200214D
:100C700021540B99C1F80880C1E900200FB0BDE8EC
:100C8000F08FBD1B6D1CDEE74A4600DA694206A8FC
:100C900000F0F4FB06AB93E8070003AB83E8070022
:100CA00050460A9900F0ADFC8DE80700A0F5005011
:100CB0001F3800900398002D0ADD42F21F014A46BA
:100CC0000844002303A90390684600F016FF09E0DA
:100CD000A0F500504A461F38002303A90390684638
:100CE00000F020FF8DE807000004000C03D04FF057
:100CF000FF30410800E01046B8F1000F03D0002299
:100D0000009215461EE0751E05D4FFF7C9FE30326D
:100D100062556D1EF9D5B3460122084302D0002268
:100D20007F1C04E02078302801D100227F1E002A99
:100D3000099784D01DE0112D07DAFFF7B1FE30329C
:100D400062556D1C50EA0102F5D1084302D00098AB
:100D5000C8B10EE00021681E05E0235C625C6354AC
:100D60002254401E491C8142F7DBAB46A81B401EA3
:100D70000990002004F80B000B98099AC0F808802D
:100D8000C0E9002B7AE711264FF0000857E72DE95C
:100D9000F04F88460446D21D22F0070191B0D1E9F8
:100DA0000001CDE90A0104F08FFA02460B98C00F4A
:100DB00001D02D2007E02068810701D52B2002E01B
:100DC000202101EAC000032A099001D0072A05DB8F
:100DD00003464146204600F011FB0BE120788006D7
:100DE00001D5E06900E00620B8F1650F814606D024
:100DF000B8F1660F18D0B8F1670F70D131E000205C
:100E0000B9F1110F009001DB112301E009F1010399
:100E10000AAA01A90CA8FFF7E2FEDDE90C70002682
:100E200009F10105834647E001204B4600904FF051
:100E300000470AAA01A90CA8FFF7D1FEDDE90DB011
:100E40000C995D46002610B909F101000D18B9EBA7
:100E5000050003D4C0F1FF3609F10105A5EB090037
:100E60002BE0B9F1010F01DA4FF001090020B9F1CF
:100E7000110F0090484601DD112300E003460AAA45
:100E800001A90CA8FFF7ABFEDDE90C704D4600266A
:100E90008346207800070AD4AB4500DA5D4601A8F6
:100EA000012D04DD411911F8011C302907D04F45EF
:100EB00002DA17F1040F04DA012082460FE06D1EFA
:100EC000EEE7002F02DCED1B3E4403E0781CA84255
:100ED00000DD7D1CB81B00F1010A4FF000472078AF
:100EE000000703D4AA4501DB4FF0FF3A0021B7F118
:100EF000004F0DF143088DF8431024D002202B231E
:100F0000002F01DA7F422D230A21021EA0F10100E9
:100F100000DC5FB197FBF1FC97FBF1F201FB1C7C5D
:100F200017460CF1300C08F801CDEEE7A8F10100EE
:100F300003702188090501D5452100E06521A0F154
:100F4000010800F8011C09980FA9A1EB0807FF1D73
:100F500000B10120411901EBEA70A1693844081A77
:100F6000401EA0612078C00602D42046FFF7DAFABE
:100F7000099828B1D4E901219047206A401C2062D9
:100F80002078C00622D52046FFF7CCFA1EE0002EBE
:100F900004DBB34502DD01A8805D00E03020D4E928
:100FA00001219047206A401C2062761CAAF10100B2
:100FB0005FEA000A0AD100F01DFAC0680168405CCF
:100FC000D4E901219047206A401C2062281EA5F127
:100FD0000105DCDC07E0D4E9012118F8010B90479A
:100FE000206A401C2062381EA7F10107F3DC20466E
:100FF000FFF7AEFA032011B041E600002DE9F04FF3
:1010000004460D46D21D22F0070089B0D0E90097B2
:101010004846394604F058F90246F80F01D02D230E
:1010200007E02068810701D52B2302E0202101EA97
:10103000C0038DF820300BB1012000E00020032A0E
:10104000824601D0072A04DB2946204600F0D6F963
:101050003FE12078800601D40D2500E0E569C7F363
:101060000A560D2D49DA00214FEA175B08464FF06A
:101070000000002F00F4400007DA00EB80004FF47E
:10108000400100EBD07001EA60008115012901DD0B
:101090004FF0FF3100224FEA850CBCF1180F06D348
:1010A0001346ACF118004FF08052C24003E04FF4F9
:1010B000801323FA0CF30CF10C0CBCF1200F04D3B9
:1010C000ACF1200C09FA0CF001E007FA0CF0002951
:1010D0004FF0004801DD18B90FE00ED140450CD3A8
:1010E00019EB02095F4121B9404502D19F4329EA2A
:1010F0000209BBEB175F00D0761C2088000502D5E3
:101100007B48784402E07A487844193808AA3023AA
:1011100002F80A30037C0AF10101002E0AF1020AEA
:1011200053546A4602DC4FF0300101E04FF03101C8
:101130004FF001088DF8001002D0A6F2FF3603E050
:1011400059EA470100D06B4E002D02DC21780907D7
:1011500004D54FF002082E218DF80110C44600215D
:101160000BE0C7F303433F01C35C491C6D1E02F84B
:101170000830052908F1010801DA002DF1DC002111
:101180000CE000EB1973491C1B786D1E082902F84E
:1011900008304FEA091908F1010801DA002DF0DCE6
:1011A00021688B0602D516E0A8F10108E04505DDAF
:1011B00002EB080313F8013C302BF5D0B8F1000F17
:1011C00009DD02EB080313F8013C2E2B03D10907BC
:1011D00001D4A8F10108002D05DD3E2102F8081018
:1011E0006D1E08F10108407C002E02F8080008F18D
:1011F000010804DA2D20764202F8080002E02B20D4
:1012000002F808000A214FF47A70864208F10108BA
:101210000BDB96FBF0F3303302F8083096FBF0F36B
:1012200008F1010800FB136601E0642E0CDB64206A
:1012300096FBF0F3303302F8083096FBF0F308F138
:10124000010800FB136601E00A2E06DB96FBF1F0B5
:10125000303002F8080008F1010896FBF1F001FBBC
:101260001060303002F80800A16908F1010808EBAD
:10127000050202EB0A00081AA0612078C00602D419
:101280002046FFF74FF9216A08AE01EB0A00206201
:1012900004E0D4E9012116F8010B9047BAF1010AE4
:1012A000F7D22078C00602D52046FFF73BF96E46FC
:1012B00009E016F8010B3E280FD0D4E90121904730
:1012C000206A401C2062B8F10108F2D22046FFF7E4
:1012D0003FF909B00320BDE8F08F206A284420625E
:1012E00003E0D4E90121302090476D1EEBD3F8E7ED
:1012F0006E75000002FCFFFF10B5436913B1AFF338
:10130000008001E0FFF747F9012010BD127800F1DD
:1013100024010A7000224A700122EDE711684FF0A3
:10132000FF32E9E710B5436913B1AFF3008001E084
:10133000FFF7D0F9012010BD128800F1240182844A
:101340000022C2840122EDE711684FF0FF32E9E785
:1013500070B516460C46054600F044F8036893F84D
:101360000101012806D0FF2C0FD8185D68B10120BB
:101370002C7070BDD3F807013246214603F20713E3
:1013800003442846BDE8704018474FF0FF3070BD59
:1013900000487047500A00207546FFF7F9FFAE4637
:1013A00005006946534620F00700854618B020B571
:1013B000FEF79EFFBDE820404FF000064FF000070B
:1013C0004FF000084FF0000B21F00701AC46ACE8ED
:1013D000C009ACE8C009ACE8C009ACE8C0098D465A
:1013E0007047000010B500F005F8001D10BD00BFEB
:1013F000B568000000487047700A00202DE9F041F0
:101400001F46044603260168072A01F4006004DB36
:1014100008B116A505E016A503E008B115A500E082
:1014200015A521F010002060A069C01EA0610FB1B9
:10143000401EA0612046FFF775F84FB1D4E90121A5
:1014400038469047206A401C2062C01C206206E09B
:10145000206AFAE7D4E9012115F8010B9047761EBE
:10146000F8D22046FFF774F8BDE8F0814E414E00F7
:101470006E616E00494E4600696E66002DE9F047C8
:10148000814616468AB0354878440DC88DE80D006F
:1014900032487844801C03AC0DC884E80D0041F646
:1014A0009B300844372190FBF1F290FBF1F5A5F158
:1014B000800501FB12041B3C02D56442012000E0C0
:1014C0000020DFF898A080460027FA44AAF1BE0A5F
:1014D0000EE0E0070AD03246684607EB47010123D9
:1014E0000AEB810100F01EFB8DE8070064107F1CF1
:1014F000002CEED1194F7F44AE3F19E0E80715D01C
:1015000007EB04100DF1180A90E80E008AE80E00AF
:10151000C068F04201D1981908903246012306A90B
:1015200003A800F0FFFA03AB83E807006D10641C0A
:10153000002DE3D14FF0010332466946B8F1000FA8
:1015400003A802D000F0D9FA01E000F0EBFAC9E9F3
:101550000001C9F808200AB0BDE8F08778720000E1
:1015600010B50446AFF300802046BDE81040FEF7FA
:10157000AABE00004FF0013C50F8042B51F8043B88
:101580009A4221D1A2EB0C03934313EACC1317D157
:1015900050F8042B51F8043B9A4215D1A2EB0C03EE
:1015A000934313EACC130BD150F8042B51F8043BAE
:1015B0009A4209D1A2EB0C03934313EACC13DBD07C
:1015C0004FF00000704700BFD01A01BAB1FA81F1A4
:1015D00001F0180122FA01F0CB40C1F12001DBB289
:1015E000C0B2C01A2CFA01F3D11A914311EAC31107
:1015F000E6D1704701491820ABBEFEE72600020085
:1016000070475FEA400C08BF91F0000F4FEA8C234F
:101610004FEAC12243EA51514FEA1C5018BF00F56E
:10162000F0404FEA300018BF41F000415FEA6C5CC7
:1016300000F02980BCF1FF3F08BF40F080407047B8
:10164000130C06BF12044FF0100C4FF0000C130ED9
:1016500004BF12020CF1080C130F04BF12010CF1AD
:10166000040C930F04BF92000CF1020CD30F04BFC3
:1016700052000CF1010C11464FF00002A0F11F00C6
:10168000A0EB0C00704711F0004F08BF704731F01D
:1016900000413FF4D5AF0B0C06BF09044FF0100C0E
:1016A0004FF0000C0B0E04BF09020CF1080C0B0FDD
:1016B00004BF09010CF1040C8B0F04BF89000CF16D
:1016C000020CCB0F04BF49000CF1010CCCF120033C
:1016D000A0EB0C0022FA03F302FA0CF241EA030138
:1016E00000F10100704720F07F4C80EA030023F0F6
:1016F0007F47ACEB070303F57C5300F0004003F198
:10170000FF032DE980494FEA154B09B44FEA144312
:1017100025EA0B4E24EA03480FF2042606EB1327B2
:1017200049083E785FEA320203FB0667C7F5000707
:1017300007FB06F64FEA54374FEAD64606F1020693
:1017400007FB066CCCF1005C4FEA1C472CEA074C07
:1017500007FB06F40CFB06F504EB15464FEA96165C
:1017600034BF00204FF000404FEAD13706FB07FCA2
:101770004FEA1C4C0CFB0BF7D21B03FB0CF761EB85
:1017800007010CFB0EF7B0EB074072EB17420CFBA6
:1017900008F734BFA2EB0742B2EB074261EB1741F7
:1017A0004FEA0C444FEA910706FB07FC4FEA1C4C3A
:1017B0000CFB0BF7B0EBC74072EB573203FB0CF797
:1017C00034BFA2EBC742B2EBC74261EB57310CFB0F
:1017D0000EF7B0EBC70072EB57720CFB08F734BF83
:1017E000A2EBC702B2EBC70261EB5771039F4FEA4E
:1017F000816141EA921104EBCC044FEAD1374FEA00
:10180000826206FB07FC42EA90124FEA80604FEAD0
:101810001C4C0CFB0BF7D21B03FB0CF761EB070115
:101820000CFB0EF7B0EB074072EB17420CFB08F70E
:1018300034BFA2EB0742B2EB074261EB17414FEA1C
:101840008C554FEA910704EB9C2406FB07FC4FEAFA
:101850001C4C0CFB0BF7B0EBC74072EB573203FB91
:101860000CF734BFA2EBC742B2EBC74261EB573172
:101870000CFB0EF7B0EBC70072EB57720CFB08F7CE
:1018800034BFA2EBC702B2EBC70261EB577115EB95
:101890004C254FEA816141EA92114FEA82624FEA98
:1018A000D13742EA901206FB07FC44F100044FEAEC
:1018B00080604FEA1C4C0CFB0BF7D21B03FB0CF7B0
:1018C00061EB07010CFB0EF7B0EB074072EB174220
:1018D0000CFB08F734BFA2EB0742B2EB074261EB07
:1018E000174115EB1C154FEA813141EA92414FEA4D
:1018F000823242EA90424FEA80304FEA0C7644F15D
:10190000000448EA03434EEA0B484FF0000EB2EBE6
:10191000080C71EB030724BF624639464EEB0E0EEE
:101920004FF0000B0018524149414BEB0B0BB2EB4F
:10193000080C71EB03077BF1000B24BF62463946AC
:101940004EEB0E0E4FF0000B0018524149414BEB8D
:101950000B0BB2EB080C71EB03077BF1000B24BF00
:10196000624639464EEB0E0E51EA020718BF46F0AA
:10197000010616EB0E7655F1000254F1000103D575
:10198000BDE88901BDE80088BDE88901BDE80048DF
:10199000B619524141EB0101A3F101037047808068
:1019A0007F7E7D7C7B7A79787776767574737271B9
:1019B00071706F6E6E6D6C6C6B6A6A696868676671
:1019C00066656464636362616160605F5F5E5E5D03
:1019D0005D5C5C5B5B5A5A59595858575756565577
:1019E00055555454535352525251515050504F4FD9
:1019F0004F4E4E4D4D4D4C4C4C4B4B4B4A4A4A4929
:101A0000494948484847474747464646454545446B
:101A10004444444343434342424242414141002BF8
:101A20009C4630D477002BD01CB54FEA370703B45F
:101A30004FF010004FF01001BAF1000F06D0BCF1CA
:101A4000000FDCBF40F0080040F008014FF000003C
:101A50000FBCBDE810400BF1010BBBF1010F08BF3B
:101A60005FEA170722BF12F1010211F101014FF0E5
:101A7000004143F1000300F0004043EA00007047DA
:101A8000F9D35708D0E746EA064613F1400F4FEA6C
:101A900016461FDD13F1200FDFBF16430A46002153
:101AA00020335B42BED0C3F1200746EA064602FA65
:101AB00007F74FEA164646EA0706C3F1200722FA5F
:101AC00003F201FA07F721FA03F14FF0000342EAAB
:101AD0000702A7E746EA020646EA06464FEA164626
:101AE00046EA0106BCBF46EA0646360C4FF0000344
:101AF0004FF000024FF0000194E72DE9804C9A4628
:101B0000934670B491E8380007C831EA400C48BFEA
:101B100034EA430C03D5FFF7E6FDFFF780FFF0BC86
:101B2000BDE8008C2DE9804C9A46934670B491E84C
:101B3000380007C810F0804F08BF13F0804F03D162
:101B400000F005F8FFF76BFFF0BCBDE8008C20F05B
:101B50007F4780EA030023F07F4C07EB0C03A3F5DB
:101B60007C5300F00040A3F1FE0392F0000F00F060
:101B7000B38095F0000F00F077802DE901494FEA1E
:101B800011404FEA144621EA004800FB06FC24EA13
:101B9000064708FB06F607FB08F800FB07F718EBFB
:101BA00006484CEB164C4FEA124B18EB07484FEA2D
:101BB00015464CEB174022EA0B4E0BFB06FC25EAC0
:101BC00006470EFB06F607FB0EFE0BFB07F71EEBA8
:101BD000064E4CEB164C4FF000061EEB074E4CEB3E
:101BE000174B18EB0B0840F1000018EB0E0B58EBED
:101BF000000840F100008F1A4FF000013CBFC943BC
:101C0000661B14BFB5EB040C00213CBFC943F61B97
:101C10004FEA17444EEA8E0E27EA04454FEA1C4766
:101C200004FB07622CEA074C05FB07F70CFB05F6E3
:101C300004FB0CFC16EB074642EB174216EB0C4676
:101C400042EB1C421BEB060658EB0202414146EAFE
:101C50009E0601D5BDE80189B619524141EB01014B
:101C6000A3F10103BDE801894FEA14454FEA11478A
:101C700024EA054621EA074C05FB07F406FB07F7B3
:101C80000CFB06F105FB0CFC11EB074144EB174480
:101C90004FEA124711EB0C4144EB1C4422EA074C7B
:101CA00005FB07F206FB07F70CFB06F605FB0CFC31
:101CB00016EB074642EB174216EB0C4642EB1C456F
:101CC0006A1854F1000148BF7047B619524141EB00
:101CD0000101A3F10103704795F0000F37D04FEADF
:101CE00011424FEA144721EA024624EA074C02FB5C
:101CF00007F106FB07F70CFB06F402FB0CFC14EBE8
:101D0000074441EB17414FEA154714EB0C4441EBF4
:101D10001C4125EA074C02FB07F506FB07F70CFB05
:101D200006F602FB0CFC16EB074645EB174516EBD7
:101D30000C4645EB1C42121951F1000148BF704797
:101D4000B619524141EB0101A3F1010370474FEA7B
:101D500014454FEA114724EA054621EA074C05FBE2
:101D600007F106FB07F70CFB06F24FF0000605FB38
:101D70000CFC12EB074241EB174112EB0C4251EB0A
:101D80001C4148BF7047921841EB0101A3F10103C8
:101D90007047FEE70848016811F4006F04D0074956
:101DA000C014086004F076B9006810F4007F08BF22
:101DB000704704F07DB90000046402400C640240E6
:101DC0000548006810F0006F08BF70474FF00060D2
:101DD0000249086004F0C6B8046402400C64024082
:101DE000704772B6FEE7000070B5044600F016F9C1
:101DF0000546B4F1FF3F02D004480078044400F0E7
:101E00000DF9401BA042FAD370BD00000000002075
:101E10002DE9F84F7B4D7A4C00224FF001094FF02D
:101E2000030C4FF00F0A05F1040E00BF0B6809FA0E
:101E300002F63340B34240F0DC800F7907F003072D
:101E4000012F18BF022F19D1D0F808804FEA42079E
:101E50000CFA07FB28EA0B08D1F80CB00BFA07F7CD
:101E600047EA08078760476827EA06060F79C7F33D
:101E7000001707FA02F747EA060646604E683CEA92
:101E800006060BD0C76856000CFA06F827EA0807C2
:101E9000D1F8088008FA06F63E43C6600E7906F0CF
:101EA0000306022E11D1D60800EB8607D7F8208052
:101EB0005607F60E0AFA06FB28EA0B08D1F810B00E
:101EC0000BFA06F646EA08063E62076856000CFA68
:101ED00006F827EA080791F8048008F0030808FAD2
:101EE00006F63E4306604E6816F4403F7DD02668F5
:101EF00046F480462660266806F48046009622F066
:101F0000030606F1804707F59837D7F80888960743
:101F1000360F0AFA06FB28EA0B08A0F1804BBBF546
:101F2000003B38D0A0F1804BBBF5013B08BF4FF020
:101F3000010B30D0A0F1804BBBF5023B08BF4FF046
:101F4000020B28D0A0F1804BBBF5033B08BF4FF03C
:101F5000030B20D0A0F1804BBBF5043B08BF4FF032
:101F6000040B18D0A0F1804BBBF5053B08BF4FF028
:101F7000050B10D0A0F1804BBBF5063B08BF4FF01E
:101F8000060B08D0A0F1804BBBF5073B0CBF4FF010
:101F9000070B4FF0080B0BFA06F646EA0806C7F8DF
:101FA00008682E684F689E4317F4801F18BF1E43B1
:101FB0002E60DEF800604F689E4317F4001F18BFC4
:101FC0001E43CEF80060104F3E68D1F804809E4357
:101FD00018F4003F18BF1E433E600C4F3E68D1F816
:101FE00004809E4318F4803F00E002E018BF1E43C7
:101FF0003E60521C102AFFF419AFBDE8F88F0000B4
:1020000044380240083C0140043C0140003C01408F
:10201000002A08BF090481617047000001488068F8
:102020007047000000000020002804BF0120704716
:1020300070B5044690F83D00002520B984F83C5066
:10204000204600F0C5F8242084F83D00206801688F
:1020500021F0010101602068016841F40041016044
:102060002068016821F40041016000F055FA544AEB
:102070006168914203D85349814203D804E0524930
:10208000814201D9012070BD50492368B0FBF1F1B4
:10209000D3F804C02CF03F0C4CEA010CC3F804C088
:1020A00063689A4228BF4B1C07D24FF4967359437A
:1020B0004FF47A73B1FBF3F14B1C2168D1F820C0C7
:1020C0002CF03F0C43EA0C030B6261688A420FD389
:1020D0004900401EB0FBF1F2521CC2F30B02042A6D
:1020E00031BF0420B0FBF1F0401CC0F30B0023E033
:1020F000A268002A53D001EBC10303EB0113A0F146
:10210000010CBCFBF3F35B1C43F480431B051B0D6C
:1021100008BF012010D0002A49D001EBC10202EB18
:102120000111401EB0FBF1F0401CC0F30B0040F465
:10213000804000BF40F400402168CA6922F0FF02DD
:1021400022F44F421043C861D4E9070101432068DB
:10215000026822F0C00211430160D4E90310014378
:102160002068826822F0FF0222F40342114381605A
:10217000D4E9050101432068C26822F0FF0211433F
:10218000C1602068016841F00101016025642020E0
:1021900084F83D00256384F83E50002070BD01EBBB
:1021A0004103A0F1010CBCFBF3F35B1CAEE701EBB8
:1021B0004101401EB0FBF1F0401CC0F30B00B9E739
:1021C000A086010080841E0000093D0040420F00EF
:1021D00070B586B0002100910191029103910491A4
:1021E00005682349122203232248234CA5F1804687
:1021F0004FF0040CB6F5A84621D0A5F18046B6F5FF
:10220000B0461CBF06B070BD0D6845F002050D60FC
:10221000096801F0020105914FF44061CDE9001217
:10222000CDE9033C6946FFF7F3FD206840F48000E8
:102230002060206800F48000059006B070BD0D6835
:1022400045F002050D60096801F0020105914FF4A7
:102250004071CDE90012CDE9033C6946FFF7D8FD96
:10226000206840F400102060206800F40010E3E7CC
:102270003038024000040240403802400248816881
:102280000278114481607047000000200B4810B5AF
:10229000016841F400710160016841F480610160EE
:1022A000016841F480710160032000F075F80F208F
:1022B00000F006F800F024F8002010BD003C0240B9
:1022C00070B50D4D04464FF47A712878B1FBF0F0EB
:1022D0000A490968B1FBF0F000F0CAFE48B9102CB9
:1022E00007D200222146501E00F024F800206C6026
:1022F00070BD012070BD0000000000200C00002017
:102300000A4881B0016841F480410160006800F42E
:10231000804000900648016841F0805101600068EB
:1023200000F08050009001B0704700004438024037
:1023300040380240174B10B41B68C3F30223C3F1AB
:10234000070CBCF1040F88BF4FF0040C1C1D072CB8
:1023500034BF0023DB1E012404FA0CFCACF1010C99
:102360000CEA0101994004FA03F35B1E1A40114381
:1023700000284FEA0111A1BF00F1E02080F800140D
:1023800010BC704700F00F0000F1E02080F8141D31
:1023900010BC70470CED00E0074900F007000A6828
:1023A0004FF6FF031A4042EA002040F0FD7040F073
:1023B00080600860704700000CED00E0002804BF5A
:1023C000012070472DE9F0474D4E04460F46306816
:1023D00001F0FF0800F00700B84206D286F800803E
:1023E000306800F00700B84261D12068454D10F018
:1023F000020F14D010F0040F03D0286840F4E0500E
:102400002860207810F0080F03D0286840F460405E
:1024100028602868A16820F0F00008432860207830
:1024200010F0010F37D060683749012823D0022807
:1024300018BF0328096823D011F0020F37D029688C
:1024400021F0030141EA00002860FFF7E7FD814623
:102450002868616800F00C00B0EB810F18BF41F2F2
:10246000883A18D0FFF7DAFDA0EB090050450BD9E8
:102470000320BDE8F087096811F4003FDFD116E0C2
:1024800011F0007FDBD112E02868616800F00C00D9
:10249000B0EB810FE6D1306800F00700B84209D9EF
:1024A00086F80080306800F00700B84202D00120B2
:1024B000BDE8F087207810F0040F05D02868E168A7
:1024C00020F4E05008432860207810F0080F06D070
:1024D0002868216920F4604040EAC100286000F0CB
:1024E0002BF82968094AC1F30311515CC840084917
:1024F000086008480068FFF7E3FE0020BDE8F087A9
:10250000003C02400838024000380240007D0008CC
:102510000C000020040000200448054900680968F8
:10252000044AC1F38221515CC84070470C0000206E
:1025300008380240107D00081848006810F00C02AE
:10254000174808BF70471749042A04BF0846704758
:10255000082A18BF704710B5134C2268236802F090
:102560003F0213F4800F08D020680023C0F38810C6
:10257000A0FB0101FDF7CEFE07E021680023C1F3B7
:102580008811A1FB0001FDF7C5FE2168C1F30141DF
:10259000491C4900B0FBF1F010BD000008380240B2
:1025A0000024F400001BB70004380240002804BFD8
:1025B000012070472DE9F84F04460078DFF8CC83FE
:1025C00010F0010FA8F1040558D008F104000168CB
:1025D00001F00C01042909D0006800F00C00082863
:1025E0000DD1D8F8000010F4800F08D0286810F43E
:1025F000003F43D06068002800F0C1813EE0606881
:10260000B0F5803F19D0B0F5A02F28680CBF40F47A
:10261000802020F48030286028680CBF40F480308F
:1026200020F4802028606068B8B1FFF7F7FC064608
:10263000286810F4003F05D020E0286840F480307E
:102640002860F0E7FFF7EAFC801B642800F22F8186
:10265000286810F4003FF5D010E0FFF7DFFC0646D5
:10266000286810F4003F09D0FFF7D8FC801B6428CD
:1026700000F21D81286810F4003FF5D12078C44F86
:1026800010F0020F47D0C349086810F00C0F16D0A5
:10269000086800F00C00082804BFD8F8000010F407
:1026A000800F0CD0E06820B34FF001003860FFF7D6
:1026B000B5FC0646286810F0020F09D011E0286822
:1026C00010F0020F1CBFE06801280AD000F057B9D3
:1026D000FFF7A4FC801B02287ED8286810F0020FA8
:1026E000F6D02868216920F0F80040EAC10028608F
:1026F00011E000203860FFF791FC0646286810F0D2
:10270000020F08D0FFF78AFC801B022864D82868D3
:1027100010F0020FF6D1207810F0080F2AD09E4852
:102720009E4E616999B101210160FFF777FC8146F6
:10273000306810F0020F1DD1FFF770FCA0EB09000C
:10274000022849D8306810F0020FF5D012E00021BD
:102750000160FFF763FC8146306810F0020F09D07A
:10276000FFF75CFCA0EB0900022835D8306810F0B8
:10277000020FF5D1207810F0040F7FD088484FF079
:10278000000B006810F0805F0AD18548016841F0B5
:102790008051016000684FF0010B00F08050009004
:1027A000DFF80092D9F8000010F4807F1AD1D9F830
:1027B000000040F48070C9F80000FFF72FFC0646C7
:1027C000D9F8000010F4807F0CD100BFFFF726FC81
:1027D000801B02286BD800E069E0D9F8000010F4F3
:1027E000807FF3D0A068704E01281BD00528306888
:1027F0000CBF40F0040020F00100306030680CBFD6
:1028000040F0010020F00400C6F80000A06841F28A
:10281000883AB8B1FFF702FC8146306810F0020F29
:1028200005D021E0306840F001003060EEE7FFF7AE
:10283000F5FBA0EB0900504539D8306810F0020FC5
:10284000F5D011E0FFF7EAFB8146306810F0020F87
:102850000AD000BFFFF7E2FBA0EB0900504526D8E5
:10286000306810F0020FF5D1BBF1000F06D04C48D4
:10287000016821F0805100E000E00160A069E8B348
:102880004449096801F00C01082950D002284FF092
:10289000000038660ED0FFF7C1FB0446286810F030
:1028A000007F6FD0FFF7BAFB001B02283AD9032044
:1028B000BDE8F88FFFF7B2FB0646286810F0007FEE
:1028C00009D000BFFFF7AAFB801B0228EFD82868B9
:1028D00010F0007FF6D1D4E907010843A16A334A1A
:1028E000490802EB0141626A41EA8211084394F807
:1028F0002C1040EA0160C8F8000000E042E001202E
:102900003866FFF78BFB0446286810F0007F39D14A
:10291000FFF784FB001B0228C9D8286810F0007F4D
:10292000F6D02FE0286810F0007FBBD12AE0012804
:1029300008BFBDE8F88FD8F80000E26900F4800114
:1029400091421CD1226A00F03F01914217D147F613
:10295000C071626A0140B1EB821F10D1A26A4FF0D0
:10296000FF3300F4403103EB5202B1EB024F06D1CA
:1029700094F82C1000F07060B0EB016F02D00120D1
:10298000BDE8F88F0020BDE8F88F00000438024051
:102990000000474208380240800E47427438024027
:1029A0004038024000700040703802400000FFFFD5
:1029B000002804BF0120704770B50446406A002516
:1029C00000281CBF2561656104D0A56294F8510000
:1029D00058B905E06068B0F5827F18BFE561F4E79B
:1029E00084F85050204600F045F8022084F8510049
:1029F0002068016821F040010160A088218900F46D
:102A0000827001F404410843A18901F40061084384
:102A1000217C01F002010843217D01F001010843FE
:102A2000218B01F400710843217F01F03801084334
:102A300094F8201001F080010843218D01F4005129
:102A4000084321680860A069042101EA104094F855
:102A5000241001F010010843216848602068C16912
:102A600021F40061C1616565012084F851000020F6
:102A700070BD000010B586B0002100910191029157
:102A8000039104910168254802220323A1F18044A7
:102A90004FF0050CB4F5983423D0A1F18044B4F57F
:102AA00060541CBF06B010BD1D490C6844F480443E
:102AB0000C60096801F480410591016841F0020150
:102AC00001600068694600F0020005904FF4604024
:102AD000CDE90002CDE9033C1248FFF799F906B0B1
:102AE00010BD11490C6844F480540C60096801F46D
:102AF00080510591016841F001010160006869465B
:102B000000F001000590E020CDE90002CDE9033C92
:102B10000648FFF77DF906B010BD000030380240CE
:102B200040380240000402404438024000000240A5
:102B30002DE9F84F044690F851001D4691468A460B
:102B4000012837D1BAF1000F18BFB9F1000F74D0C6
:102B500060684FF00407B0F5827F04BFA0680028CA
:102B60001ED0FFF75BFA064694F85000012821D0EA
:102B70004FF0010884F8508084F851700027676591
:102B8000C4F838A0A4F83C90A4F83E902763A78628
:102B9000E78627646764A068B0F5004F0DD016E0A3
:102BA00084F85170009313460A46204600F046F917
:102BB000BDE8F88F0220BDE8F88F2068016821F099
:102BC000400101602068016821F4804101602068B3
:102BD000016811F0400F03D1016841F0400101602C
:102BE000E0680028E08F0FD040B32068816811F0C2
:102BF000010F29D0C068A16B0880A06B801CA06366
:102C0000E08F401EE08729E0C0B12068816811F0A4
:102C1000010F09D0007BA16B0870A06B401CA06362
:102C2000E08F401EE0870BE0FFF7F8F9801BA84219
:102C300005D3B5F1FF3F29D102E024E011E02DB327
:102C4000E08F0028E1D10CE0FFF7E8F9801BA842F3
:102C500003D3B5F1FF3F19D100E0BDB1E08F0028EB
:102C6000C3D132462946204602F0BFF800281CBFD7
:102C70002020606584F8518084F85070606D0028D1
:102C800008BFBDE8F88F0120BDE8F88F84F85180B7
:102C900084F850700320BDE8F88F2DE9F84F1D46E9
:102CA00090468A460446FFF7B9F9064694F8510063
:102CB000012822D1BAF1000F18BFB8F1000F7DD062
:102CC00094F85000012818D04FF0010984F8509072
:102CD000032084F8510000276765C4F830A0A4F8E9
:102CE0003480A4F83680A763A787E78767642764E2
:102CF000A068B0F5004F03D00CE00220BDE8F88FCB
:102D00002068016821F0400101602068016841F4F9
:102D1000804101602068016811F0400F03D1016813
:102D200041F040010160E068B0F5006F606805D0D7
:102D3000002818BFB8F1010F31D03AE0002818BFC1
:102D4000B8F1010F0BD1206B21680088C860206B9F
:102D500000F102002063E08EA0F10100E086E08E29
:102D6000002846D02068816811F0020F09D0216B3D
:102D70000988C160206B801C2063E08E401EE086C5
:102D800009E0FFF74BF9801BA84203D3B5F1FF3FE1
:102D90003CD100E0CDB3E08E0028E3D129E0206BE8
:102DA000216800780873206B401C2063E08E401E71
:102DB000E086E08EE8B12068816800E03AE011F03A
:102DC000020F09D0216B09780173206B401C20632E
:102DD000E08E401EE08609E0FFF720F9801BA84244
:102DE00003D3B5F1FF3F11D100E075B1E08E0028AB
:102DF000E1D132462946204602F034F800281CBFB3
:102E000020206065A06860B907E0FFE784F8519072
:102E100084F850700320BDE8F88F2068C16880688E
:102E2000009084F8519084F85070606D002808BFBD
:102E3000BDE8F88F0120BDE8F88F00002DE9FF4FB5
:102E400081B01D469346044601260E9FFFF7E6F823
:102E500094F8511080466068012906D0B0F5827F51
:102E600002BFA068002804292CD1029800281CBFAA
:102E7000BBF1000F002D00F0F58094F85000012800
:102E800020D04FF0010A84F850A094F85100042893
:102E90001CBF052084F851004FF00009C4F854907D
:102EA000C4F838B0E587A58702982063E586A58633
:102EB000C4F84090C4F844902068016811F0400FB5
:102EC00008D103E005B00220BDE8F08F016841F0B1
:102ED00040010160E068B0F5006F606804D0002830
:102EE00018BF012D5BD09CE0002818BF012D41D1F7
:102EF000206B21680088C860206B00F1020020630D
:102F0000E08EA0F10100E08634E02068816811F0D5
:102F1000020F1CBFE18E00290ED0012E0CD1216BB7
:102F20000988C160206B00F102002063E08EA0F1EF
:102F30000100E0864FF000062068816811F0010F63
:102F40001CBFE18F00290CD0C068A16B0880A06B6A
:102F500000F10200A063E08FA0F10100E0874FF0D4
:102F60000106FFF75BF8A0EB0800B84202D3B7F107
:102F7000FF3F5DD1E08E002804BFE08F0028C4D160
:102F800042463946204601F06DFF002859D02020E6
:102F9000606584F8509005B00120BDE8F08F206B8B
:102FA000216800780873206B401C2063E08E401E6F
:102FB000E08636E02068816811F0020F1CBFE18EC8
:102FC00000290ED0012E0CD1216B09780173206BE2
:102FD00000F101002063E08EA0F10100E0864FF0D7
:102FE00000062068816811F0010F1CBFE18F0029E5
:102FF0000CD0C068A16B0870A06B00F10100A06349
:10300000E08FA0F10100E0874FF00106FFF706F81E
:10301000A0EB0800B84203D3B7F1FF3F01D007E0AF
:1030200037B1E08E002804BFE08F0028C2D1A7E7A7
:1030300084F851A084F8509005B04FF00300BDE82B
:10304000F08FA06818B92068C1688068009084F883
:1030500051A084F85090606D002804BF05B0BDE811
:10306000F08F00BF05B04FF00100BDE8F08F000009
:10307000411EB1F1807F24BF012070474FF0E02056
:103080004161054AF02182F8141D00218161072168
:1030900001610020704700000FE000E0FEE7000043
:1030A00030B4DFF854C04A680023DCF80840DCF88C
:1030B0000851DCF808C22C4344EA0C0C1CF0010F48
:1030C00018BF012302D030BC18467047DFF82CC06F
:1030D00052B10C682243D1E90241214311434268B5
:1030E00002EA0C02114304E04268096802EA0C0299
:1030F00011434160E7E7000000200140E010FCFFC1
:103100008368002213F0010F18BF012201D010467E
:103110007047D1F808C00B6843EA0C03D0F804C02C
:103120002CF4807C2CF0407C43EA0C0343608368E1
:10313000496823F4006319438160E8E710B44B68E1
:10314000D0F808C000221CF0010F18BF012202D0E5
:1031500010BC10467047002B436823F468431CBF23
:10316000D1F808C043EA0C034360D1E9033C43EAC9
:103170000C03D0F808C0094C0CEA040C0C6804F0ED
:1031800070644CEA040C43EA0C0383604968C36A28
:1031900023F470031943C162DAE70000FDFCFFC0AD
:1031A0002DE9F0030A6892FAA2F3B3FA83F3DA4046
:1031B0007DD001250F244FF0030C00BF0E6805FAE7
:1031C00003F2324074D04E68012E18BF022E20D177
:1031D0008E68D0F8088092FAA2F7B7FA87F74FEA1C
:1031E00047070CFA07F728EA070792FAA2F8B8FA95
:1031F00088F84FEA480806FA08F647EA06068660A5
:10320000CE68476802FB06F627EA020747EA060689
:1032100046600E69D0F80C8092FAA2F7B7FA87F7E9
:103220004FEA47070CFA07F728EA070792FAA2F8CD
:10323000B8FA88F84FEA480806FA08F647EA060698
:10324000C6604E68022E37D192FAA2F6B6FA86F61A
:10325000082E16D24E69076A92FAA2F8B8FA88F8D0
:103260004FEA880804FA08F827EA080792FAA2F851
:10327000B8FA88F84FEA880806FA08F63E4306626C
:103280001AE04F69D0F82480160A96FAA6F9B9FA1E
:1032900089F94FEA890904FA09F996FAA6F6B6FA05
:1032A00086F6B60028EA090807FA06F601E01DE0EE
:1032B00017E048EA060646624E68076892FAA2F8E6
:1032C000B8FA88F84FEA48080CFA08F892FAA2F21D
:1032D000B2FA82F2520027EA080706FA02F23A43EB
:1032E00002600A685B1CDA407FF468AFBDE8F00357
:1032F00000207047234A10B4116811F00C032249D2
:1033000022D0DFF888C0042B08BF61461CD0082BF0
:103310001AD11F4B1C6814F4800403D0B4F5800F3D
:1033200008BF6146D3F800C00CF03F0CB1FBFCFCB9
:1033300019681B68C1F388110CFB01F1C3F3014349
:103340005B1C5B00B1FBF3F101601368DFF844C064
:1033500003F0F0031B091CF80330D94041601368E7
:10336000C3F3822C0C4B13F80CC021FA0CFCC0F8F0
:1033700008C01268C2F342329A5CD140C16010BCEE
:1033800070470000083802400024F400001BB7001A
:1033900004380240007D0008107D00080A7B8B681D
:1033A0001A434B6822F480621A430B6822F40062CD
:1033B0001A43CB8922F480521A430B6922F400523B
:1033C0001A43496922F48042114341640020704746
:1033D000F0B402682C4B2D4C2D4D2E4EDFF8B8C0AA
:1033E000984218BFB0F1804F07D0A04218BFA84242
:1033F00003D0B04218BF604504D14F6822F070027C
:1034000042EA0702984218BFB0F1804F25D0A0428F
:1034100018BFA84221D0B04218BF60451DD0A0F10E
:103420008044B4F5A0341CBFA0F18044B4F5A234AC
:1034300013D0A0F18044B4F5A4341CBFA0F18044A3
:10344000B4F5C05409D0A0F18044B4F5E0541CBFD9
:10345000A0F18044B4F5005403D1CC6822F440724A
:10346000224302608A68C2620A888262984212BF5E
:10347000604509690163416941F001014161F0BCA6
:103480004FF00000704700000000014000040040C1
:1034900000080040000C004000040140012908BF62
:1034A000002115D0042908BF012111D0102908BF1F
:1034B00002210DD0402908BF032109D0B1F5807F3A
:1034C00008BF042104D0B1F5806F0CBF052106218F
:1034D000064A1830525C10440268054B595C0423BC
:1034E00003FA01F122EA010101607047E27C000861
:1034F000E97C0008012908BF002115D0042908BF74
:10350000012111D0102908BF02210DD0402908BF88
:10351000032109D0B1F5807F08BF042104D0B1F5A3
:10352000806F0CBF05210621064A1830525C1044FA
:103530000268054B595C082303FA01F1114301604D
:1035400070470000E27C0008E97C0008F0B4012527
:103550000023DFF8B8C16E4C012909D010293BD0F7
:10356000B1F5807F71D0B1F5805F6DD000F0CAB841
:10357000016A21F001010162056A416886691768E4
:1035800026F073063E43176925F002053D43576850
:1035900025F001053D43604518BFA04215D154698F
:1035A00025F0080C4CEA840C94682CF0040C4CEACE
:1035B0008405D2F818C021F4807141EA0C01D2F8D8
:1035C0001CC021F4007141EA4C0141608661D16860
:1035D000416305621D4695E0016A21F01001016218
:1035E000056A41688669176826F4E64646EA0726B2
:1035F000176925F0200545EA0715576825F01005DD
:1036000045EA0715604518BFA04215D1546925F059
:10361000800C4CEA841C94682CF0400C4CEA841515
:10362000D2F818C021F4806141EA8C01D2F81CC0A4
:1036300021F4006141EACC0141608661D168816377
:1036400005621D465EE000E036E0016A21F480710B
:103650000162056A4168C669176826F0730646EA82
:103660000706176925F4007545EA0725576825F40C
:10367000807545EA0725604518BFA04215D15469F9
:1036800025F4006C4CEA842C94682CF4806C4CEA91
:103690008425D2F818C021F4805141EA0C11D2F8E7
:1036A0001CC021F4005141EA4C114160C661D1684F
:1036B000C16305621D4625E0016A21F48051016263
:1036C000056A4168C669176826F4E64646EA072691
:1036D000176925F4005545EA0735576825F48055E4
:1036E00045EA0735604518BFA04205D1D2F818C099
:1036F00021F4804141EA8C114160C661D1680164C6
:1037000005621D462846F0BC7047000000000140DD
:1037100000040140F0B50446C06885B00D4601279D
:1037200010F4005F6CD1E9686868AA6908432969E8
:1037300011430843E16821F4037121F41441084363
:10374000E060A868216921F440510843206168695C
:10375000616921F44071084360616846FFF7CAFD62
:10376000A4F18040B0F5883019D0A4F18040B0F5C4
:1037700088401CBFA4F18040B0F5904011D0A4F166
:103780008040B0F58A300AD0A4F18040B0F598406E
:103790001CBFA4F18040B0F5A04002D030E00398F7
:1037A00000E0029800281CBF2968002928D0AA69D7
:1037B0004FF00007244D3B464FF0190C4FF03206F6
:1037C000B2F5004F1FD08B0F8A00A0FB0C01FCF755
:1037D000A1FD0146A5FB012040096FF018024243FC
:1037E00001EB820106EB0111A5FB0121490901F062
:1037F000F00202EB001001F00F01084480B2A0605B
:1038000005B03846F0BD4A18A0FB0C015B41FCF73F
:1038100081FD0146A5FB0120420908466FF0180111
:10382000514300EB810006EBC000A5FB0010130123
:10383000400900F0F80103EB410100F007000844E3
:1038400080B2A060DCE700001F85EB5130B593B07B
:1038500000241294109411940094039404943A4810
:10386000019402940D940E940F940C94089409946E
:103870000A940B94016841F480710160006800F4BF
:10388000807005903148016841F0020101600068D4
:1038900006A900F0020005900320069007902C482E
:1038A000FFF77EFC2B4D1094119410A9284612941A
:1038B000FFF726FC0094019402940394694628467D
:1038C0000494FFF73BFCA86840F48060A8604FF4C4
:1038D0008030CDE90C040CA91F48FFF7E1FB4FF441
:1038E000407191FAA1F16815B1FA81F1C84005EB78
:1038F0008000C16A21F01F0141F00801C1624FF050
:10390000007090FAA0F1B1FA81F1C84005EB800196
:10391000CB684FF0F87292FAA2FC4FF0C070BCFA7C
:103920008CFC20FA0CFC072505FA0CFC92FAA2F29A
:10393000B2FA82F2D04023EA0C0304FA00F01843F2
:10394000C86013B030BD0000443802403038024037
:10395000000402400020014000230140244881B0BF
:10396000016841F4800101600068DFF888C000F45C
:1039700080000090DCF80000C0F30220C0F10701D5
:10398000042988BF0421021D072A34BF0020C01E5D
:10399000012202FA01F1491E01F0030101FA00F0CF
:1039A0001549000181F80004144B1020C3F80001F0
:1039B000DCF80000C0F30220C0F10701042988BF31
:1039C000042100F1040CBCF1070F34BF0020C01E1D
:1039D00002FA01F1491E01F0020101FA00F0084962
:1039E000000181F800044020C3F8000101B07047D5
:1039F000303802400CED00E044E000E008E000E078
:103A000046E000E02DE9F04786B0002444480094E9
:103A10000194029403940494016841F0040101604C
:103A2000016801F004010591016841F08001016025
:103A3000016801F080010591016841F00101016018
:103A4000016801F001010591016841F00201016086
:103A5000016801F002010591016841F0080101606F
:103A60000068DFF8C0A000F00800059001224EF2C7
:103A700020015046FEF7CCFA00220F215046FEF7F7
:103A8000C7FADFF8A480012210214046FEF7C0FAF1
:103A9000DFF89890012211034846FEF7B9FA4FF477
:103AA000604000900125CDE90154694650460394D9
:103AB000FEF7AEF92F200326CDE90005CDE9024639
:103AC00069465046FEF7A4F9102700970396CDE902
:103AD000015469464046FEF79BF9009769465046F7
:103AE000CDE90145FEF794F90420CDE900046946CB
:103AF00002954846FEF78CF92F0300970396CDE90F
:103B0000015469464846FEF783F9009769464046E6
:103B1000CDE90145FEF77CF906B0BDE8F08700006D
:103B20003038024000080240000002400004024019
:103B30000D4810B50B4901600C49416000214FF45C
:103B400080428160C0E9031241618161C16101620B
:103B5000FEF76AFA002808BF10BDBDE81040FEF766
:103B600040B9000000540040FC000020A086010085
:103B70000D4810B50B4901600C49416000214FF41C
:103B800080428160C0E9031241618161C1610162CB
:103B9000FEF74AFA002808BF10BDBDE81040FEF746
:103BA00020B900000058004050010020A08601000C
:103BB000104810B50E4901604FF482714160002138
:103BC0008160C1604FF400720161C0E905121022EA
:103BD000C0E90721416281620A21C162FEF7E8FE65
:103BE000002808BF10BDBDE81040FEF7FAB800007D
:103BF00000300140A4010020104810B50E490160BA
:103C00004FF482714160002102228160C0E90312F9
:103C100001224261520282610822C0E90721416209
:103C200081620A21C162FEF7C3FE002808BF10BDF1
:103C3000BDE81040FEF7D5B800380040FC01002078
:103C400030B59BB0002414941594169417941894CE
:103C500000940194029403940494059406940794A8
:103C6000089409946C480A940B940C940D940E9447
:103C70000F941094119412941394016841F001016F
:103C800001600068654900F00100199064484279BC
:103C90008A58437922F0606242F04062CA50427909
:103CA0008A58437922F0C00242F04002CA50427959
:103CB0008A58437922F4403242F40032CA504279A1
:103CC0008A58437922F49072CA5042798A584379CB
:103CD00022F40072CA5042798A58437942F48062D1
:103CE000CA5042798A58437922F4C05242F4805231
:103CF000CA5042798A58437922F4C04242F4804241
:103D0000CA50427947495258407922F00402425041
:103D10000D20ADF850001320CDE91540424D179409
:103D200014A928461894FFF753FB286840F0800038
:103D30002860A86820F0070020F48040A8600121D6
:103D40002846FFF7D7FB6020CDE9000402940394D6
:103D50000494059406946A46012128460794FFF7C7
:103D6000F5FB01212846FFF799FB10212846FFF7B4
:103D7000C1FB6A4610212846FFF7E8FB10212846C0
:103D8000FFF78CFBA9152846FFF7B4FB6A46A91577
:103D90002846FFF7DBFBA9152846FFF77FFBA91490
:103DA0002846FFF7A7FB6A46A9142846FFF7CEFB73
:103DB000A9142846FFF772FB686820F0700068605D
:103DC000A86820F08000A86008946814CDE90C046D
:103DD0008DF82C4009940A94ADF82E4008A9284685
:103DE000FFF7DCFA1148016841F001010160006849
:103DF0000EA900F0010019904FF470600E9002209F
:103E0000CDE90F040120CDE9124011940848FFF7D5
:103E1000C7F91BB030BD00004438024000640240C6
:103E2000F07C000814640240000001403038024079
:103E30000000024070B594B000240F9411941294C5
:103E40000E940694079408940A943A4809940B94A3
:103E50000C940D940094019402940394049405949A
:103E6000016841F00101016000680EA900F0010045
:103E70001390601E1090ADF838404FF08040FFF76F
:103E8000A7FA4FF08045286820F0800028600121C3
:103E90002846FFF72FFB6020CDE906040121089496
:103EA000099406AA88070A94FFF750FB01218807A6
:103EB000FFF7F4FA10218806FFF71CFB102106AA71
:103EC0008806FFF743FB10218806FFF7E7FA6868CA
:103ED00020F070006860A86820F08000A860164894
:103EE000016841F001010160016801F001011391D5
:103EF000016841F0020101600068012600F0020043
:103F00001390E81300900225CDE90154CDE9044651
:103F100069460A480394FFF743F908200090CDE969
:103F20000154CDE90446694605480394FFF738F982
:103F300014B070BD403802403038024000000240EA
:103F40000004024030B595B000240F9410941194F1
:103F500012940E9400940194029403945A48049489
:103F6000059406940794089409940A940B940C946D
:103F70000D94016841F002010160006800F0020048
:103F8000139052480068C0F30220C0F107010429D1
:103F900088BF0421021D072A34BF0020C01E012251
:103FA00002FA01F1491E01F0040101FA00F048494A
:103FB000000181F800044FF0E0215007C1F8000132
:103FC0005320ADF8380044F61F60CDE90F40414D55
:103FD0000EA928461194FFF7FBF9286840F08000ED
:103FE0002860A86820F0070020F48040A860012124
:103FF0002846FFF77FFA6020CDE90004029403947D
:104000006A46012128460494FFF7A0FA01212846B8
:10401000FFF744FA10212846FFF76CFA6A46102190
:104020002846FFF793FA10212846FFF737FAA9151B
:104030002846FFF75FFA6A46A9152846FFF786FA71
:10404000A9152846FFF72AFAA9142846FFF752FABD
:104050006A46A9142846FFF779FAA9142846FFF7FB
:104060001DFA686820F070006860A86820F0800081
:10407000A8601948016841F004010160016801F07D
:1040800004011391016841F00201016000680225FA
:1040900000F0020013904FF440700890CDE90954ED
:1040A00008A90E480B94CDE90C45FFF779F83020AC
:1040B0000890CDE9095408A909480B94CDE90C45AD
:1040C000FFF76EF815B030BD403802400CED00E04F
:1040D0001DE000E0000400403038024000080240CB
:1040E0000004024010B586B00022234800920192DD
:1040F000029203920492016841F01001016000688D
:1041000000F0100005901D480068C0F30220C0F1C7
:104110000701042988BF0421031D072B34BF002099
:10412000C01E012303FA01F1491E01F0040101FA46
:1041300000F01349000181F8000412499805C1F804
:1041400000015320ADF8000040F2E730CDE9012036
:104150000D4C69462046FFF73BF9206840F080008F
:104160002060606820F070006060A06820F080002F
:10417000A06006B010BD0000403802400CED00E029
:1041800036E000E004E000E00010004010B58EB022
:10419000002401942F4800940294069403940494FC
:1041A00005940B940C94016841F4002101600068AF
:1041B00000F4002007902848016841F001010160E7
:1041C0000068022100F0010007900320CDE90801FA
:1041D0000A9008200D9008A92048FEF7E1FF20482A
:1041E0000068C0F30220C0F10701042988BF042140
:1041F000021D072A34BF0020C01E012202FA01F16D
:10420000491E01F0010101FA00F01649000181F890
:10421000000415491005C1F800011448CDE9000457
:104220000C200294CDE9034005940694104C694695
:104230002046FFF76FFA206920F490402061606902
:1042400020F02A006061E06840F40050E0600EB0A9
:1042500010BD0000403802403038024000000240EB
:104260000CED00E034E000E004E000E0A0680600AF
:10427000004C0040F0B58FB000242C480694079401
:10428000089409940A940B940C9403940494016880
:1042900041F480110160006800F480100D90244802
:1042A000016841F004010160016801F004010D9111
:1042B000016841F0080101600068082700F008006B
:1042C0000D904FF4805002250597CDE90005032697
:1042D000694602961748FEF763FF0420CDE9000502
:1042E000CDE90264CDE9044769461348FEF758FF5B
:1042F0004FF4E130CDE906040C200894CDE90940E3
:104300000B940C940D4C06A92046FFF703FA206984
:1043100020F490402061606920F02A006061E0682C
:1043200040F40050E0600FB0F0BD000040380240A3
:104330003038024000080240000C024000500040AB
:1043400010B58EB0002401943F4800940294069466
:104350000394049405940B940C94016841F01001AB
:104360000160006800F0100007903848016841F0D3
:1043700002010160006808A900F002000790C02057
:1043800008900220099003200A9007200D903048E1
:10439000FEF706FF30482F49C2798A58C37922F0C8
:1043A000606242F00062CA50C2798A58C37922F032
:1043B000C00242F04002CA50C2798A58C37922F43E
:1043C0004032CA50C2798A58C37922F49072CA50D6
:1043D000C2798A58C37922F40072CA50C2798A58C5
:1043E000C37942F48062CA50C2798A58C37922F4F0
:1043F000C052CA50C2798A58C37922F4C042CA5006
:10440000C27916495258C07922F004024250144829
:10441000CDE900040C200294CDE9034005940694F4
:10442000104C69462046FFF775F9206920F490404A
:104430002061606920F02A006061E06840F400506B
:10444000E0600EB010BD0000443802403038024039
:104450000004024000640240F87C0008146402403A
:1044600040420F000010014030B58FB0002401948D
:1044700020480094029406940394049405940B94A9
:104480000C94016841F400310160006800F40030D0
:1044900007901948016841F00101016000680C258E
:1044A00000F00100CDE907050220099003200A90E1
:1044B00007200D9008A91148FEF772FE4FF4E13075
:1044C000CDE900040294CDE90345059406940C4C13
:1044D00069462046FFF71EF9206920F490402061CC
:1044E000606920F02A006061E06840F40050E060FC
:1044F0000FB030BD4038024030380240000002406A
:104500000044004010B58EB000240194214800946E
:10451000029406940394049405940B940C940168FB
:1045200041F480210160006800F4802007901A485F
:10453000016841F004010160006808A900F004006E
:1045400007904FF4406008900220099003200A90E1
:1045500007200D901148FEF723FE4FF4E130CDE91E
:1045600000040C200294CDE90340059406940C4C01
:1045700069462046FFF7CEF8206920F4904020617C
:10458000606920F02A006061E06840F40050E0605B
:104590000EB010BD403802403038024000080240E2
:1045A0000048004010B58EB00024019421480094CA
:1045B000029406940394049405940B940C9401685B
:1045C00041F020010160006800F0200007901A48C7
:1045D000016841F004010160006808A900F00400CE
:1045E0000790C02008900220099003200A9008201C
:1045F0000D901248FEF7D4FD4FF4E130CDE90004F0
:104600000C200294CDE90340059406940C4C6946B5
:104610002046FFF77FF8206920F490402061606910
:1046200020F02A006061E06840F40050E0600EB0C5
:1046300010BD0000443802403038024000080240FB
:104640000014014090ED000A81ED000A90ED010A8E
:1046500081ED010A90ED020A81ED020A90ED030A54
:1046600081ED030A90ED040A81ED040A90ED050A3C
:1046700081ED050A90ED060A81ED060A90ED070A24
:1046800081ED070A90ED080A81ED080A704711B51F
:1046900004462DED040B87B09DED080A8DED000A50
:1046A00001F086F98DED010A9DED080A8DED000AF5
:1046B00001F0C0F98DED050A9DED070A8DED000AA8
:1046C00001F0B8F98DED020A9DED070A8DED000AA3
:1046D00001F06EF98DED030A9DED090A8DED000ADA
:1046E00001F0A8F98DED000A9DED090A8DED040A8F
:1046F00001F05EF98DED040A9DED010ADDED040A7D
:1047000020EE200A84ED000A9DED020ADDED050A87
:104710009DED031ADDED001A20EE200ADDED040AFE
:1047200060EE200A41EE610AC4ED010ADDED030AE4
:104730009DED051ADDED021A9DED002A60EE810A5D
:104740009DED041A20EE811A01EE821A84ED021A00
:104750009DED011ADDED001A21EE211A84ED031AF8
:104760009DED001ADDED041A20EE010A9DED031AFD
:1047700001EE210A84ED040A9DED000A9DED041A64
:1047800020EE800ADDED020A00EEC10A84ED050A82
:104790009DED050AB1EE400A84ED060A9DED020A80
:1047A000DDED010A20EE200A84ED070A9DED030AE3
:1047B000DDED010A20EE200A84ED080A0CB010BDE0
:1047C0009FED0E0A80ED020A80ED010A80ED000ADD
:1047D00080ED050A80ED040A80ED030A80ED080AE9
:1047E00080ED070A80ED060AB7EE000A80ED080AA0
:1047F00080ED040A80ED000A704700000000000010
:1048000090ED000AD1ED000A91ED031A20EE200A86
:10481000D0ED010A00EE810AD0ED020A91ED061AF0
:1048200000EE810A82ED000A90ED000AD1ED010A46
:1048300091ED041A20EE200AD0ED010A00EE810A63
:10484000D0ED020A91ED071A00EE810A82ED010A0D
:1048500090ED000AD1ED020A91ED051A20EE200A32
:10486000D0ED010A00EE810AD0ED020A91ED081A9E
:1048700000EE810A82ED020A90ED030AD1ED000AF2
:1048800091ED031A20EE200AD0ED040A00EE810A11
:10489000D0ED050A91ED061A00EE810A82ED030AB9
:1048A00090ED030AD1ED010A91ED041A20EE200AE1
:1048B000D0ED040A00EE810AD0ED050A91ED071A49
:1048C00000EE810A82ED040A90ED030AD1ED020A9E
:1048D00091ED051A20EE200AD0ED040A00EE810ABF
:1048E000D0ED050A91ED081A00EE810A82ED050A65
:1048F00090ED060AD1ED000A91ED031A20EE200A90
:10490000D0ED070A00EE810AD0ED080A91ED061AF3
:1049100000EE810A82ED060A90ED060AD1ED010A49
:1049200091ED041A20EE200AD0ED070A00EE810A6C
:10493000D0ED080A91ED071A00EE810A82ED070A10
:1049400090ED060AD1ED020A91ED051A20EE200A3B
:10495000D0ED070A00EE810AD0ED080A91ED081AA1
:1049600000EE810A82ED080A704790ED000AD1ED51
:10497000000A91ED011A20EE200AD0ED010A00EEA6
:10498000810AD0ED020A91ED021A00EE810A82ED51
:10499000000A90ED030AD1ED000A91ED011A20EE14
:1049A000200AD0ED040A00EE810AD0ED050A91ED4F
:1049B000021A00EE810A82ED010A90ED060AD1ED9D
:1049C000000A91ED011A20EE200AD0ED070A00EE50
:1049D000810AD0ED080A91ED021A00EE810A82EDFB
:1049E000020A704710B590ED000AD0ED030A90ED71
:1049F000041A8BB020EE200AD0ED010A0C4669465D
:104A000000EE810AD0ED020A90ED051A00EE810A4F
:104A1000F6EE000A20EE200A8DED060AD0ED030A1C
:104A2000CDED000A90ED040A8DED010AD0ED052AC6
:104A3000CDED022A90ED002A8DED032AD0ED011A6A
:104A4000CDED041A9DED063A90ED021AB1EE433A0F
:104A50008DED063A60EE830A20EE030A62EE832AA9
:104A6000CDED000A22EE032A8DED010A61EE831AD4
:104A7000CDED022A21EE031A8DED032ACDED041AA5
:104A80008DED051A90ED003A70EE830ACDED000A27
:104A900090ED013A30EE030A8DED010A90ED023AF5
:104AA00072EE832ACDED022A90ED033A32EE032A0C
:104AB0008DED032A90ED043A71EE831ACDED041AC0
:104AC00090ED053A084631EE031A8DED051A20EEF9
:104AD000013A02EEE13A62EE822A40EEC12A60EE2D
:104AE000A10A8DED083A40EE420ACDED092ACDED3E
:104AF0000A0A00F053FB03A9084600F04FFB08A97F
:104B0000084600F04BFB9DED000A84ED000A9DED88
:104B1000010A84ED010A9DED020A84ED020A9DED71
:104B2000030A84ED030A9DED040A84ED040A9DED59
:104B3000050A84ED050A9DED080A84ED060A9DED3F
:104B4000090A84ED070A9DED0A0A84ED080A0BB0F4
:104B500010BD90ED010AD1ED020A91ED011A20EE8F
:104B6000200AD0ED020A00EEC10AD0ED000A30EEB4
:104B7000200A82ED000A90ED020AD1ED000A91EDC3
:104B8000021A20EE200AD0ED000A00EEC10AD0ED94
:104B9000010A30EE200A82ED010A90ED000AD1ED03
:104BA000010A91ED001A20EE200AD0ED010A00EE74
:104BB000C10AD0ED020A30EE200A82ED020A90ED21
:104BC000040AD1ED020A91ED011A20EE200AD0ED7F
:104BD000050A00EEC10AD0ED030A30EE200A82ED8C
:104BE000030A90ED050AD1ED000A91ED021A20EEBC
:104BF000200AD0ED030A00EEC10AD0ED040A30EE1F
:104C0000200A82ED040A90ED030AD1ED010A91ED2C
:104C1000001A20EE200AD0ED040A00EEC10AD0ED01
:104C2000050A30EE200A82ED050A90ED070AD1ED63
:104C3000020A91ED011A20EE200AD0ED080A00EEDA
:104C4000C10AD0ED060A30EE200A82ED060A90ED88
:104C5000080AD1ED000A91ED021A20EE200AD0EDEB
:104C6000060A00EEC10AD0ED070A30EE200A82EDF6
:104C7000070A90ED060AD1ED010A20EE200AD0EDD8
:104C8000070A91ED001A00EEC10AD0ED080A30EED5
:104C9000200A82ED080A704790ED000AD1ED000A63
:104CA00030EE600A82ED000A90ED010AD1ED010AB2
:104CB00030EE600A82ED010A90ED020AD1ED020A9F
:104CC00030EE600A82ED020A90ED030AD1ED030A8C
:104CD00030EE600A82ED030A90ED040AD1ED040A79
:104CE00030EE600A82ED040A90ED050AD1ED050A66
:104CF00030EE600A82ED050A90ED060AD1ED060A53
:104D000030EE600A82ED060A90ED070AD1ED070A3F
:104D100030EE600A82ED070A90ED080AD1ED080A2C
:104D200030EE600A82ED080A7047F0B583B090ED6E
:104D3000060A1D4617460E4604468DED000A00F091
:104D4000EFFAB1EE400A87ED000A94ED070A02A8D7
:104D50008DED000A94ED080A8DED010AF0EE400A8F
:104D60009DED000A00F01AFD9DED020A02A886EDF5
:104D7000000A94ED030A8DED000A94ED000A8DED12
:104D8000010AF0EE400A9DED000A00F007FD9DEDDE
:104D9000020A85ED000A03B0F0BD90ED000A81ED36
:104DA000000A90ED030A81ED010A90ED060A81EDFB
:104DB000020A90ED010A81ED030A90ED040A81EDEB
:104DC000040A90ED070A81ED050A90ED020A81EDD3
:104DD000060A90ED050A81ED070A90ED080A81EDBB
:104DE000080A7047FEE7FEE7704738B5044640689A
:104DF000B0F5827F0FD1A068B0F5004F18BFB0F5B5
:104E0000806F1AD12068036823F040030360606854
:104E1000B0F5827F0DD00B46009200220121204682
:104E200000F056F8E0B1606D40F0200060650320AE
:104E300038BDA068B0F5806F09D00B460092002203
:104E40008021204600F044F80028ECD108E00B4611
:104E5000009200220121204600F03AF80028E2D119
:104E6000002038BDF8B515460E460B4600920446A4
:104E70000122022100F02CF8A0B913481349006860
:104E8000B0FBF1F04FF47A71484300906068B0F5E0
:104E9000827F0DD13346002280212046009500F00C
:104EA00017F870B1606D40F0200060650320F8BD18
:104EB000009830B1401E00902068806810F0800F8C
:104EC000F6D10020F8BD00000C00002000366E0175
:104ED0002DE9F843994616460F460446089DFDF70E
:104EE0009DF8401BA9EB0005FDF798F880462B487C
:104EF0000068C0F3CB30684300902068806837EAD0
:104F000000000CBF01200020B04218D0B9F1FF3FD3
:104F10000CD0FDF783F8A0EB0800A84212D28DB1A7
:104F2000009800280EBF0025401E00902068806871
:104F300037EA00000CBF01200020B042E6D100207B
:104F4000BDE8F8832068416821F0E00141606068B5
:104F5000B0F5827F0BD1A068B0F5004F18BFB0F557
:104F6000806F04D12068016821F040010160A06ACF
:104F7000B0F5005F09D12068016821F4005101609B
:104F80002068016841F400510160012084F851005B
:104F9000002084F850000320BDE8F8830C000020B6
:104FA0007047FDF76BB9000030B593B0002522487B
:104FB00002950395049505950C950D950E950F9505
:104FC0001095016841F080510160006800F0805048
:104FD00011901A48016841F4804101600068022480
:104FE00000F48040119001200090000401908001A5
:104FF000CDE9064006200890A820CDE90904042048
:105000000B906846FDF7D2FA08B172B6FEE70F20A2
:10501000CDE90C044FF4A050CDE90E504FF4805070
:10502000109005210CA8FDF7C9F9002804BF13B0A2
:1050300030BD72B6FEE7000040380240007000400C
:105040000248016841F470010160704788ED00E09A
:105050000448016811F0010F1CBF6FF001010160ED
:1050600070470000100400400548016911F0010F6D
:1050700008BF70476FF00101016102F02BBB000017
:10508000001000400648006810F0200F08BF70476D
:105090000448006810F0200F08BF704700F0E2BE1F
:1050A000004C00400C4C0040FEE790ED000AD1EDB2
:1050B000000A30EE200A82ED000A90ED010AD1EDDF
:1050C000010A30EE200A82ED010A90ED020AD1EDCC
:1050D000020A30EE200A82ED020A704790ED000AC3
:1050E00081ED000A90ED010A81ED010A90ED020ABE
:1050F00081ED020A704790ED010AD1ED020A91EDAF
:10510000011A20EE200AD0ED020A00EEC10A82ED5B
:10511000000A90ED020AD1ED000A91ED021A20EE8C
:10512000200AD0ED000A00EEC10A82ED010A90EDDE
:10513000000AD1ED010A91ED001A20EE200AD0ED0F
:10514000010A00EEC10A82ED020A704790ED000AE2
:10515000D0ED000A90ED011A81B020EE200AD0EDCA
:10516000010A00EE810AD0ED020A90ED021A00EE6B
:10517000810A8DED000AB5EEC00AF1EE10FAA7BF64
:10518000F1EEC00ACDED000A9FED030A8DED000A95
:105190009DED000A01B070470000000090ED000A8C
:1051A000D0ED000A90ED011A81B020EE200AD0ED7A
:1051B000010A00EE810AD0ED020A90ED021A00EE1B
:1051C000810ADFED1E0A8DED000AB5EEC00AF1EE90
:1051D00010FAA6BFB1EEC01A8DED001ACDED000A8F
:1051E0009DED000A164B10EE102A9A421DDDF7EED7
:1051F000000A80EE801A8DED001A90ED000A20EE74
:10520000010A81ED000A90ED010ADDED000A20EEB1
:10521000200A81ED010A90ED020ADDED000A20EE80
:10522000200A81ED020A01B07047C1ED020AC1ED0A
:10523000010AC1ED000A01B0704700000000000043
:10524000ACC5273703B42DED020B90ED000ADDED60
:10525000000A20EE200A81ED000A90ED010ADDED42
:10526000000A20EE200A81ED010A90ED020ADDED30
:10527000000A20EE200A81ED020A04B0704790ED8A
:10528000000AD1ED000A30EE600A82ED000A90EDCE
:10529000010AD1ED010A30EE600A82ED010A90EDBB
:1052A000020AD1ED020A30EE600A82ED020A70476E
:1052B0009FED040A80ED020A80ED010A80ED000AEC
:1052C000704700000000000003B4019841000098FE
:1052D00050EAC12018BF04204A0D18BF40F0010059
:1052E00040F2FF72B2EB515F08BF40F002000128AC
:1052F00008BF052002B070474100080218BF042013
:105300000A0E18BF40F001004FF07F4232EA01015F
:1053100008BF40F00200012808BF052070470000C8
:1053200010B54FF00E402DED028BB0EE408A18EE16
:10533000104A00EB4400B0F1506F4AD84FF0FC40E7
:10534000B0EB440F22D2B0EEC80AF7EE000A30EEFE
:10535000C00AF6EE000A60EE208A18EE900A02F00B
:1053600099F901EE100A14F0004F1DBFDFED2D0A70
:105370009FED2D0AB1EE411ADFED2C0A08BF9FED1B
:105380002C0AF8EE001A21EE218A05E0DFED290A49
:1053900068EE088AB0EE600A9FED271ADFED271A43
:1053A00030EE080A48EE811A9FED251A08EEA11A80
:1053B000DFED241A48EE811A9FED231A08EEA11A98
:1053C00068EE281ABDEC028B01EE810A30EE200A4D
:1053D00010BD4FF0E440B0EB440F0CD918EE100AAA
:1053E000FFF78AFF042808BF00F03CF8B0EE480A37
:1053F000BDEC028B10BD4FF07F40B0EB440F07D2E5
:10540000B0EE480ABDEC028BBDE8104000F01EB8BB
:105410000120FBF781F8BDEC028BBDE8104000F0E5
:1054200019B800000000C9BF22AAFDB90000C93F99
:1054300022AAFD390000000024FE1C3DC78AD83C8A
:105440001E67383D1B93993DAFAA2A3E30EE000AF5
:1054500070470000DFED020A80EEA00A70470000EE
:10546000000000009FED020A20EE000A70470000D5
:105470000000001030380A2801D2012070470020B7
:10548000704700002149132898BF096E38D9262893
:1054900098BF496E34D94B2898BF896E30D9962869
:1054A00098BFC96E2CD9B0F5AF7F98BF096F27D9C7
:1054B00040F2EE22904298BF496F21D940F2DC526F
:1054C000904298BF896F1BD940F6B832904298BF7E
:1054D000C96F15D941F27072904298BFD1F880100F
:1054E0000ED942F6E062904298BFD1F8841007D9F5
:1054F00045F6C052904292BFD1F888100020704704
:1055000010B5502001F08AF9012010BD207D00085F
:1055100002490246A1F15400FFF772B97404002059
:1055200070B51446084A0D460646A2F1E401A1F101
:105530005400FFF765F923462A463146BDE870401E
:105540000148FFF7F2BB00005805002010B51748CE
:10555000FFF736F91648FFF7ABFE1648FFF7A8FE2F
:105560001548FFF7A5FE1548FFF7A2FE1448FFF700
:105570009FFE1448FFF79CFE1348FFF721F91448DB
:105580009FED120AF2EE0E0A80ED000AC0ED010A4C
:1055900080ED020A80ED030A0E4880ED000A80EDDE
:1055A000010AB7EE000A80ED020A10BD7404002063
:1055B00044040020500400205C0400206804002003
:1055C00098040020A4040020200400200000000013
:1055D00044000020B004002037B50D462DED020B2D
:1055E00082B09DED020AB5EEC00AF1EE10FA9EBF40
:1055F000002007B030BD002804BF07B030BD5549BA
:10560000FFF76CFD534A02F12401A1F12400FFF7DA
:105610004CFD5048FFF79AFD4F4C504AA2F1C00193
:1056200084ED000A01F1C000FFF73FFD4B4AA2F1F3
:10563000B40101F1B400FFF738FD484AA2F1A80116
:1056400001F1A800FFF731FD44499DED020A08462B
:10565000FFF7F8FD424AA2F10C01A1F19000FFF71B
:1056600078FA404901F19C00FEF7ECFF3D490846FD
:10567000FFF7B8F9002D6AD02846FFF767FD10EE56
:10568000100A39498DED000A8842A4BF374981428A
:105690005DDB37492846FFF721FD364A02F10C0150
:1056A000A1F13000FFF761F93349A1F19C00FFF748
:1056B00075FD324AA2F1900101F18400FFF71BFD54
:1056C0002E48FFF743FD2E498DED000A01F1F00051
:1056D000FFF704FD94ED000A2A4910EE100A8DED43
:1056E000000A8842B8BFB7EE000A0BDB26498142A8
:1056F000B8BFB2EE040A05DB00EE900A9FED231A54
:1057000080EE810AD4ED010A1D49084620EE200AE8
:10571000FFF798FD94ED000A1D4910EE100A88422B
:1057200015DA1C49A1F10C00FFF7D8FC94ED020A30
:10573000DDED020A174920EE200A0846FFF782FD38
:10574000154A02F1E401A1F1E400FFF7AEFC07B055
:10575000012030BD44040020440000200405002046
:1057600010050020740400200000104100003041AA
:10577000A4040020980400203405002040050020E7
:1057800050040020F3665F3F58A00B41F3665F3F73
:10579000C2B8B23E4C050020680400209FED7D3A5F
:1057A000B7EE004ADFED7C3A7C49DFED7D2AF5EE6D
:1057B000C00A91ED081A2031F1EE10FA3BDDC0EE7F
:1057C000201A0023F5EEC01AF1EE10FA3CBF0123B7
:1057D000F1EE611A11EE902AB2F17E5FDCBF01EEAC
:1057E000A31A042212DD84EE210A042200EE231AF9
:1057F00051ED010A40EE010A11ED021A0839521E5C
:1058000000EE201AF4D132EEC10A0CE011ED010ACB
:1058100001EE810A11ED021A0839521E01EE801ABA
:10582000F4D131EE030A002B18BFB1EE400A80ED2F
:10583000000A00207047F5EEC00AF1EE10FA71D2AE
:105840009FED582AB5EEC00AF1EE10FA3EDDC0EE2B
:10585000201A0023F5EEC01AF1EE10FA3CBF012326
:10586000F1EE611A11EE902AB2F17E5FDCBF01EE1B
:10587000A31A042212DD84EE210A042200EE231A68
:1058800051ED010A40EE010A11ED021A0839521ECB
:1058900000EE201AF4D132EEC10A0CE011ED010A3B
:1058A00001EE810A11ED021A0839521E01EE801A2A
:1058B000F4D131EE030A002B18BFB1EE400A30EEEE
:1058C000020A00BF80ED000A00207047B5EEC00A52
:1058D000F1EE10FA3BD2C0EE201A0023F5EEC01A0A
:1058E000F1EE10FA3CBF0123F1EE611A11EE902A9D
:1058F000B2F17E5FDCBF01EEA31A042213DD84EE59
:10590000210A042200EE231A51ED010A40EE010A99
:1059100011ED021A0839521E00EE201AF4D132EEAF
:10592000C10A0DE01DE011ED010A01EE810A11ED41
:10593000021A0839521E01EE801AF4D131EE030A20
:10594000002B18BFB1EE400A30EE420ABAE710EE63
:10595000101A0029B4BF9FED140A80ED002AB3DAB3
:10596000B0E7F5EEC00AF1EE10FA0FD1B5EEC00ABD
:10597000F1EE10FAC8BFC0ED002AA5DCB5EEC00AF2
:10598000F1EE10FA38BF9FED090A9BD36FF00300C8
:105990007047000000000000A59204BDB08500081B
:1059A000DB0FC93FDB0F4940DB0F49C0DB0FC9BF2D
:1059B0009FED1D1AF5EE000A40EE010ABDEEE00A69
:1059C000F5EEC00A10EE100AF1EE10FA38BF401ED4
:1059D00000EE100AB8EEC00A30EEC00ADFED130A7E
:1059E00020EE200ABCEEC01A11EE100A80B2B0F50B
:1059F000007F24BF002030EE600A00EE900A0C49C0
:105A0000F7EE001AF8EE600A01EB800090ED011A43
:105A100070EE600A90ED000A71EEE01A21EE800A45
:105A200000EE810A7047000083F9223E0000004426
:105A3000AC7D0008DFED1C0A20EE200AFDEEC00A56
:105A4000B5EEC00A10EE900AF1EE10FA38BF401E13
:105A500000EE900AF8EEE00A30EE600ADFED130A7D
:105A600020EE200ABCEEC01A11EE100A80B2B0F58A
:105A7000007F24BF002030EE600A00EE900A0C493F
:105A8000F7EE001AF8EE600A01EB800090ED011AC3
:105A900070EE600A90ED000A71EEE01A21EE800AC5
:105AA00000EE810A7047000083F9223E00000044A6
:105AB000AC7D000891ED000A80ED040A92ED000A29
:105AC00080ED000A9FED150A80ED0C0A80ED080AB2
:105AD000D1ED010AC0ED050AD2ED010AC0ED010ABF
